{
  "contractName": "Kyc",
  "abi": [
    {
      "inputs": [],
      "name": "customernumber",
      "outputs": [
        {
          "internalType": "uint256",
          "name": "",
          "type": "uint256"
        }
      ],
      "stateMutability": "view",
      "type": "function",
      "constant": true
    },
    {
      "inputs": [
        {
          "internalType": "address",
          "name": "",
          "type": "address"
        }
      ],
      "name": "registration",
      "outputs": [
        {
          "internalType": "address",
          "name": "acountno",
          "type": "address"
        },
        {
          "internalType": "enum Kyc.customertype",
          "name": "customertcategory",
          "type": "uint8"
        },
        {
          "internalType": "uint256",
          "name": "customerno",
          "type": "uint256"
        }
      ],
      "stateMutability": "view",
      "type": "function",
      "constant": true
    },
    {
      "inputs": [
        {
          "internalType": "enum Kyc.customertype",
          "name": "_category",
          "type": "uint8"
        }
      ],
      "name": "signup",
      "outputs": [],
      "stateMutability": "nonpayable",
      "type": "function"
    }
  ],
  "bytecode": "0x608060405234801561001057600080fd5b50610309806100206000396000f3fe608060405234801561001057600080fd5b50600436106100415760003560e01c80630840605a146100465780632bb6341d146100e6578063fd061fb414610104575b600080fd5b6100886004803603602081101561005c57600080fd5b81019080803573ffffffffffffffffffffffffffffffffffffffff169060200190929190505050610135565b604051808473ffffffffffffffffffffffffffffffffffffffff1673ffffffffffffffffffffffffffffffffffffffff1681526020018360018111156100ca57fe5b60ff168152602001828152602001935050505060405180910390f35b6100ee61018c565b6040518082815260200191505060405180910390f35b6101336004803603602081101561011a57600080fd5b81019080803560ff169060200190929190505050610192565b005b60016020528060005260406000206000915090508060000160009054906101000a900473ffffffffffffffffffffffffffffffffffffffff16908060000160149054906101000a900460ff16908060010154905083565b60005481565b600080815480929190600101919050555033600160003373ffffffffffffffffffffffffffffffffffffffff1673ffffffffffffffffffffffffffffffffffffffff16815260200190815260200160002060000160006101000a81548173ffffffffffffffffffffffffffffffffffffffff021916908373ffffffffffffffffffffffffffffffffffffffff16021790555080600160003373ffffffffffffffffffffffffffffffffffffffff1673ffffffffffffffffffffffffffffffffffffffff16815260200190815260200160002060000160146101000a81548160ff0219169083600181111561028257fe5b0217905550600054600160003373ffffffffffffffffffffffffffffffffffffffff1673ffffffffffffffffffffffffffffffffffffffff168152602001908152602001600020600101819055505056fea264697066735822122019fa6a9040e8c54f7f08e15fee758e01b23d032b172d2183588ac6f692f93ebe64736f6c63430006010033",
  "source": "// SPDX-License-Identifier: MIT\npragma solidity ^0.6.0;\n\ncontract Kyc{\n  //For customer category\n  enum customertype{Individual,Industry}\n  //customer number\n  uint public customernumber;\n  struct regcustomer\n  {\n    \n    //address of customer\n        address acountno; \n    // customer category\n        customertype customertcategory;\n    //  customer number\n        uint customerno;\n  }\n  \n  // For storing address of customer with registration number\n   mapping(address=>regcustomer)public registration; \n  \n\n   //Function for Customer Signup\n    function signup(customertype _category)public\n        {\n          //increments customer no\n            customernumber++;\n          \n          //stores address of customer\n            registration[msg.sender].acountno=msg.sender;\n          \n          //stores category of customer \n            registration[msg.sender].customertcategory=_category;\n            \n          //stores Customer Number\n            registration[msg.sender].customerno=customernumber;\n\n        }\n    \n\n     }",
  "sourcePath": "/home/vimal/Project clone/ced-b4-g01/contracts/Kyc.sol",
  "compiler": {
    "name": "solc",
    "version": "0.6.1+commit.e6f7d5a4.Emscripten.clang"
  },
  "schemaVersion": "3.0.23",
  "updatedAt": "2020-08-08T14:19:12.600Z",
  "networkType": "ethereum",
  "devdoc": {
    "methods": {}
  },
  "userdoc": {
    "methods": {}
  }
}