{
  "contractName": "OxidaneToken",
  "abi": [
    {
      "inputs": [],
      "stateMutability": "nonpayable",
      "type": "constructor"
    },
    {
      "anonymous": false,
      "inputs": [
        {
          "indexed": true,
          "internalType": "address",
          "name": "_owner",
          "type": "address"
        },
        {
          "indexed": true,
          "internalType": "address",
          "name": "_spender",
          "type": "address"
        },
        {
          "indexed": false,
          "internalType": "uint256",
          "name": "_value",
          "type": "uint256"
        }
      ],
      "name": "Approval",
      "type": "event"
    },
    {
      "anonymous": false,
      "inputs": [
        {
          "indexed": true,
          "internalType": "address",
          "name": "_from",
          "type": "address"
        },
        {
          "indexed": true,
          "internalType": "address",
          "name": "_to",
          "type": "address"
        },
        {
          "indexed": false,
          "internalType": "uint256",
          "name": "_value",
          "type": "uint256"
        }
      ],
      "name": "Transfer",
      "type": "event"
    },
    {
      "inputs": [
        {
          "internalType": "address",
          "name": "",
          "type": "address"
        },
        {
          "internalType": "address",
          "name": "",
          "type": "address"
        }
      ],
      "name": "allowance",
      "outputs": [
        {
          "internalType": "uint256",
          "name": "",
          "type": "uint256"
        }
      ],
      "stateMutability": "view",
      "type": "function",
      "constant": true
    },
    {
      "inputs": [
        {
          "internalType": "address",
          "name": "",
          "type": "address"
        }
      ],
      "name": "balanceOf",
      "outputs": [
        {
          "internalType": "uint256",
          "name": "",
          "type": "uint256"
        }
      ],
      "stateMutability": "view",
      "type": "function",
      "constant": true
    },
    {
      "inputs": [],
      "name": "name",
      "outputs": [
        {
          "internalType": "string",
          "name": "",
          "type": "string"
        }
      ],
      "stateMutability": "view",
      "type": "function",
      "constant": true
    },
    {
      "inputs": [],
      "name": "standard",
      "outputs": [
        {
          "internalType": "string",
          "name": "",
          "type": "string"
        }
      ],
      "stateMutability": "view",
      "type": "function",
      "constant": true
    },
    {
      "inputs": [],
      "name": "symbol",
      "outputs": [
        {
          "internalType": "string",
          "name": "",
          "type": "string"
        }
      ],
      "stateMutability": "view",
      "type": "function",
      "constant": true
    },
    {
      "inputs": [],
      "name": "totalSupply",
      "outputs": [
        {
          "internalType": "uint256",
          "name": "",
          "type": "uint256"
        }
      ],
      "stateMutability": "view",
      "type": "function",
      "constant": true
    },
    {
      "inputs": [
        {
          "internalType": "address",
          "name": "_to",
          "type": "address"
        },
        {
          "internalType": "uint256",
          "name": "_value",
          "type": "uint256"
        }
      ],
      "name": "transfer",
      "outputs": [
        {
          "internalType": "bool",
          "name": "success",
          "type": "bool"
        }
      ],
      "stateMutability": "nonpayable",
      "type": "function"
    },
    {
      "inputs": [
        {
          "internalType": "address",
          "name": "_spender",
          "type": "address"
        },
        {
          "internalType": "uint256",
          "name": "_value",
          "type": "uint256"
        }
      ],
      "name": "approve",
      "outputs": [
        {
          "internalType": "bool",
          "name": "success",
          "type": "bool"
        }
      ],
      "stateMutability": "nonpayable",
      "type": "function"
    },
    {
      "inputs": [
        {
          "internalType": "address",
          "name": "_from",
          "type": "address"
        },
        {
          "internalType": "address",
          "name": "_to",
          "type": "address"
        },
        {
          "internalType": "uint256",
          "name": "_value",
          "type": "uint256"
        }
      ],
      "name": "transferFrom",
      "outputs": [
        {
          "internalType": "bool",
          "name": "success",
          "type": "bool"
        }
      ],
      "stateMutability": "nonpayable",
      "type": "function"
    },
    {
      "inputs": [
        {
          "internalType": "address",
          "name": "spender",
          "type": "address"
        },
        {
          "internalType": "uint256",
          "name": "subtractedValue",
          "type": "uint256"
        }
      ],
      "name": "decreaseAllowance",
      "outputs": [
        {
          "internalType": "bool",
          "name": "",
          "type": "bool"
        }
      ],
      "stateMutability": "nonpayable",
      "type": "function"
    },
    {
      "inputs": [
        {
          "internalType": "address",
          "name": "_from",
          "type": "address"
        },
        {
          "internalType": "address",
          "name": "_to",
          "type": "address"
        }
      ],
      "name": "getallowance",
      "outputs": [
        {
          "internalType": "uint256",
          "name": "",
          "type": "uint256"
        }
      ],
      "stateMutability": "view",
      "type": "function",
      "constant": true
    }
  ],
  "bytecode": "0x60806040526040518060400160405280600d81526020017f4f786964616e6520546f6b656e00000000000000000000000000000000000000815250600090805190602001906200005192919062000156565b506040518060400160405280600381526020017f4f58440000000000000000000000000000000000000000000000000000000000815250600190805190602001906200009f92919062000156565b506040518060400160405280600e81526020017f4f584420546f6b656e2076312e3000000000000000000000000000000000000081525060029080519060200190620000ed92919062000156565b5069d3c21bcecceda10000006003553480156200010957600080fd5b50600354600460003373ffffffffffffffffffffffffffffffffffffffff1673ffffffffffffffffffffffffffffffffffffffff1681526020019081526020016000208190555062000205565b828054600181600116156101000203166002900490600052602060002090601f016020900481019282601f106200019957805160ff1916838001178555620001ca565b82800160010185558215620001ca579182015b82811115620001c9578251825591602001919060010190620001ac565b5b509050620001d99190620001dd565b5090565b6200020291905b80821115620001fe576000816000905550600101620001e4565b5090565b90565b61154f80620002156000396000f3fe608060405234801561001057600080fd5b50600436106100a95760003560e01c80635a3b7e42116100715780635a3b7e42146102b357806370a082311461033657806395d89b411461038e578063a457c2d714610411578063a9059cbb14610477578063dd62ed3e146104dd576100a9565b806306fdde03146100ae578063095ea7b31461013157806318160ddd1461019757806321c4f09f146101b557806323b872dd1461022d575b600080fd5b6100b6610555565b6040518080602001828103825283818151815260200191508051906020019080838360005b838110156100f65780820151818401526020810190506100db565b50505050905090810190601f1680156101235780820380516001836020036101000a031916815260200191505b509250505060405180910390f35b61017d6004803603604081101561014757600080fd5b81019080803573ffffffffffffffffffffffffffffffffffffffff169060200190929190803590602001909291905050506105f3565b604051808215151515815260200191505060405180910390f35b61019f610896565b6040518082815260200191505060405180910390f35b610217600480360360408110156101cb57600080fd5b81019080803573ffffffffffffffffffffffffffffffffffffffff169060200190929190803573ffffffffffffffffffffffffffffffffffffffff16906020019092919050505061089c565b6040518082815260200191505060405180910390f35b6102996004803603606081101561024357600080fd5b81019080803573ffffffffffffffffffffffffffffffffffffffff169060200190929190803573ffffffffffffffffffffffffffffffffffffffff16906020019092919080359060200190929190505050610923565b604051808215151515815260200191505060405180910390f35b6102bb610d5c565b6040518080602001828103825283818151815260200191508051906020019080838360005b838110156102fb5780820151818401526020810190506102e0565b50505050905090810190601f1680156103285780820380516001836020036101000a031916815260200191505b509250505060405180910390f35b6103786004803603602081101561034c57600080fd5b81019080803573ffffffffffffffffffffffffffffffffffffffff169060200190929190505050610dfa565b6040518082815260200191505060405180910390f35b610396610e12565b6040518080602001828103825283818151815260200191508051906020019080838360005b838110156103d65780820151818401526020810190506103bb565b50505050905090810190601f1680156104035780820380516001836020036101000a031916815260200191505b509250505060405180910390f35b61045d6004803603604081101561042757600080fd5b81019080803573ffffffffffffffffffffffffffffffffffffffff16906020019092919080359060200190929190505050610eb0565b604051808215151515815260200191505060405180910390f35b6104c36004803603604081101561048d57600080fd5b81019080803573ffffffffffffffffffffffffffffffffffffffff1690602001909291908035906020019092919050505061117b565b604051808215151515815260200191505060405180910390f35b61053f600480360360408110156104f357600080fd5b81019080803573ffffffffffffffffffffffffffffffffffffffff169060200190929190803573ffffffffffffffffffffffffffffffffffffffff169060200190929190505050611437565b6040518082815260200191505060405180910390f35b60008054600181600116156101000203166002900480601f0160208091040260200160405190810160405280929190818152602001828054600181600116156101000203166002900480156105eb5780601f106105c0576101008083540402835291602001916105eb565b820191906000526020600020905b8154815290600101906020018083116105ce57829003601f168201915b505050505081565b60003373ffffffffffffffffffffffffffffffffffffffff168373ffffffffffffffffffffffffffffffffffffffff16141561067a576040517f08c379a00000000000000000000000000000000000000000000000000000000081526004018080602001828103825260248152602001806114d46024913960400191505060405180910390fd5b60008214156106f1576040517f08c379a000000000000000000000000000000000000000000000000000000000815260040180806020018281038252601c8152602001807f596f752063616e74207472616e73666572205a65726f20546f6b656e0000000081525060200191505060405180910390fd5b600460003373ffffffffffffffffffffffffffffffffffffffff1673ffffffffffffffffffffffffffffffffffffffff168152602001908152602001600020548211156107a6576040517f08c379a000000000000000000000000000000000000000000000000000000000815260040180806020018281038252601d8152602001807f4e6f7420456e6f7567682062616c616e636520746f20617070726f766500000081525060200191505060405180910390fd5b81600560003373ffffffffffffffffffffffffffffffffffffffff1673ffffffffffffffffffffffffffffffffffffffff16815260200190815260200160002060008573ffffffffffffffffffffffffffffffffffffffff1673ffffffffffffffffffffffffffffffffffffffff168152602001908152602001600020819055508273ffffffffffffffffffffffffffffffffffffffff163373ffffffffffffffffffffffffffffffffffffffff167f8c5be1e5ebec7d5bd14f71427d1e84f3dd0314c0f7b2291e5b200ac8c7c3b925846040518082815260200191505060405180910390a36001905092915050565b60035481565b6000600560008473ffffffffffffffffffffffffffffffffffffffff1673ffffffffffffffffffffffffffffffffffffffff16815260200190815260200160002060008373ffffffffffffffffffffffffffffffffffffffff1673ffffffffffffffffffffffffffffffffffffffff16815260200190815260200160002054905092915050565b60008273ffffffffffffffffffffffffffffffffffffffff168473ffffffffffffffffffffffffffffffffffffffff1614156109aa576040517f08c379a000000000000000000000000000000000000000000000000000000000815260040180806020018281038252602381526020018061145d6023913960400191505060405180910390fd5b6000821415610a21576040517f08c379a000000000000000000000000000000000000000000000000000000000815260040180806020018281038252601c8152602001807f596f752063616e74207472616e666572207a65726f20746f6b656e730000000081525060200191505060405180910390fd5b600460008573ffffffffffffffffffffffffffffffffffffffff1673ffffffffffffffffffffffffffffffffffffffff16815260200190815260200160002054821115610ad6576040517f08c379a000000000000000000000000000000000000000000000000000000000815260040180806020018281038252601e8152602001807f4e6f7420456e6f7567682062616c616e636520746f207472616e73666572000081525060200191505060405180910390fd5b600560008573ffffffffffffffffffffffffffffffffffffffff1673ffffffffffffffffffffffffffffffffffffffff16815260200190815260200160002060008473ffffffffffffffffffffffffffffffffffffffff1673ffffffffffffffffffffffffffffffffffffffff16815260200190815260200160002054821115610bc8576040517f08c379a00000000000000000000000000000000000000000000000000000000081526004018080602001828103825260148152602001807f4e6f7420456e6f75676820616c6c6f77616e636500000000000000000000000081525060200191505060405180910390fd5b81600460008673ffffffffffffffffffffffffffffffffffffffff1673ffffffffffffffffffffffffffffffffffffffff1681526020019081526020016000206000828254039250508190555081600460008573ffffffffffffffffffffffffffffffffffffffff1673ffffffffffffffffffffffffffffffffffffffff1681526020019081526020016000206000828254019250508190555081600560008673ffffffffffffffffffffffffffffffffffffffff1673ffffffffffffffffffffffffffffffffffffffff16815260200190815260200160002060008573ffffffffffffffffffffffffffffffffffffffff1673ffffffffffffffffffffffffffffffffffffffff168152602001908152602001600020600082825403925050819055508273ffffffffffffffffffffffffffffffffffffffff168473ffffffffffffffffffffffffffffffffffffffff167fddf252ad1be2c89b69c2b068fc378daa952ba7f163c4a11628f55a4df523b3ef846040518082815260200191505060405180910390a3600190509392505050565b60028054600181600116156101000203166002900480601f016020809104026020016040519081016040528092919081815260200182805460018160011615610100020316600290048015610df25780601f10610dc757610100808354040283529160200191610df2565b820191906000526020600020905b815481529060010190602001808311610dd557829003601f168201915b505050505081565b60046020528060005260406000206000915090505481565b60018054600181600116156101000203166002900480601f016020809104026020016040519081016040528092919081815260200182805460018160011615610100020316600290048015610ea85780601f10610e7d57610100808354040283529160200191610ea8565b820191906000526020600020905b815481529060010190602001808311610e8b57829003601f168201915b505050505081565b60003373ffffffffffffffffffffffffffffffffffffffff168373ffffffffffffffffffffffffffffffffffffffff161415610f37576040517f08c379a00000000000000000000000000000000000000000000000000000000081526004018080602001828103825260318152602001806114a36031913960400191505060405180910390fd5b6000821415610f91576040517f08c379a00000000000000000000000000000000000000000000000000000000081526004018080602001828103825260228152602001806114f86022913960400191505060405180910390fd5b81600560003373ffffffffffffffffffffffffffffffffffffffff1673ffffffffffffffffffffffffffffffffffffffff16815260200190815260200160002060008573ffffffffffffffffffffffffffffffffffffffff1673ffffffffffffffffffffffffffffffffffffffff1681526020019081526020016000205403600560003373ffffffffffffffffffffffffffffffffffffffff1673ffffffffffffffffffffffffffffffffffffffff16815260200190815260200160002060008573ffffffffffffffffffffffffffffffffffffffff1673ffffffffffffffffffffffffffffffffffffffff168152602001908152602001600020819055508273ffffffffffffffffffffffffffffffffffffffff163373ffffffffffffffffffffffffffffffffffffffff167f8c5be1e5ebec7d5bd14f71427d1e84f3dd0314c0f7b2291e5b200ac8c7c3b925600560003373ffffffffffffffffffffffffffffffffffffffff1673ffffffffffffffffffffffffffffffffffffffff16815260200190815260200160002060008773ffffffffffffffffffffffffffffffffffffffff1673ffffffffffffffffffffffffffffffffffffffff168152602001908152602001600020546040518082815260200191505060405180910390a36001905092915050565b60003373ffffffffffffffffffffffffffffffffffffffff168373ffffffffffffffffffffffffffffffffffffffff161415611202576040517f08c379a00000000000000000000000000000000000000000000000000000000081526004018080602001828103825260238152602001806114806023913960400191505060405180910390fd5b6000821415611279576040517f08c379a000000000000000000000000000000000000000000000000000000000815260040180806020018281038252601c8152602001807f596f752063616e74207472616e73666572205a65726f20546f6b656e0000000081525060200191505060405180910390fd5b81600460003373ffffffffffffffffffffffffffffffffffffffff1673ffffffffffffffffffffffffffffffffffffffff16815260200190815260200160002054101561132e576040517f08c379a00000000000000000000000000000000000000000000000000000000081526004018080602001828103825260128152602001807f4e6f7420656e6f7567682042616c616e6365000000000000000000000000000081525060200191505060405180910390fd5b81600460003373ffffffffffffffffffffffffffffffffffffffff1673ffffffffffffffffffffffffffffffffffffffff1681526020019081526020016000206000828254039250508190555081600460008573ffffffffffffffffffffffffffffffffffffffff1673ffffffffffffffffffffffffffffffffffffffff168152602001908152602001600020600082825401925050819055508273ffffffffffffffffffffffffffffffffffffffff163373ffffffffffffffffffffffffffffffffffffffff167fddf252ad1be2c89b69c2b068fc378daa952ba7f163c4a11628f55a4df523b3ef846040518082815260200191505060405180910390a36001905092915050565b600560205281600052604060002060205280600052604060002060009150915050548156fe596f752063616e74207472616e66657220746f6b656e7320746f20796f757273656c66596f752063616e74207472616e7366657220546f6b656e20746f20796f757273656c66596f7520617265206e6f7420616c6c6f77656420746f206d616b652073656c6620616c6c6f77616e6365206368616e6765596f752063616e7420616c6c6f636174652020546f6b656e20746f20796f757273656c66596f7520617265206e6f74206368616e67696e6720616e7920616c6c6f77616e6365a264697066735822122078c873ae0ac1f5444f5e67869c8a2edf65edacd436d6ec6616ef1eddb4eaecaf64736f6c63430006010033",
  "source": "// SPDX-License-Identifier: MIT\npragma solidity ^0.6.0;\n\ncontract OxidaneToken {\n    string  public name = \"Oxidane Token\";//Token Name\n    string  public symbol = \"OXD\"; // Symbol of Token\n    string  public standard = \"OXD Token v1.0\"; //version of Token\n    uint256 public totalSupply =  1000000000000000000000000; // Total Supply of Tokens\n\n    //Event for Transfer Function (Emits when token transfer from contract to customer-ERC 20 STD)\n    event Transfer(address indexed _from,address indexed _to,uint256 _value);\n\n    //Event for Approve Function (Emits when token is allocated from owner to Spender-ERC 20 STD)\n    event Approval(address indexed _owner,address indexed _spender,uint256 _value);\n\n    //For Storing Token balance with address\n    mapping(address => uint256) public balanceOf;\n    \n    //For Storing Token allowance of owner with Spender address\n    mapping(address => mapping(address => uint256)) public allowance;\n\n    //sets total token balance to contract owner\n    constructor () public\n    {\n        balanceOf[msg.sender] = totalSupply;\n    }\n    \n    //Function To Transfer Tokens From contract to beneficiary \n    function transfer(address _to, uint256 _value) public returns (bool success) \n    \n    {\n        //Prevents Token Self Transfer\n        require(_to!=msg.sender,\"You cant transfer Token to yourself\");\n        \n        //Prevents Zero Token Transfer\n        require(_value!=0,\"You cant transfer Zero Token\");\n        \n        //Prevents Token Transfer if quantity is more the balance of contract\n        require(balanceOf[msg.sender] >= _value,\"Not enough Balance\");\n        \n        //Token balance of contract is reduced\n        balanceOf[msg.sender] -= _value;\n        \n        //Token balance of beneficiary is increased\n        balanceOf[_to] += _value;\n        \n        //Emits event\n        emit Transfer(msg.sender, _to, _value);\n        \n        //return true if transaction is Success (Part of ERC 20-standard)\n        return true;\n    }\n\n    //Function for Allocation of Token Allowance with Spender\n    function approve(address _spender, uint256 _value) public returns (bool success) \n    {\n        //Prevents From Allocating Tokens To Themselves\n        require(_spender!=msg.sender,\"You cant allocate  Token to yourself\");\n        \n        //Prevents Zero Token Allowance\n        require(_value!=0,\"You cant transfer Zero Token\");\n        \n        //Prevents Token Allowance if quantity is more the balance of owner\n        require(_value <= balanceOf[msg.sender],\"Not Enough balance to approve\");\n        \n        //Updating Allowance\n        allowance[msg.sender][_spender] = _value;\n\n        //Emits event \n        emit Approval(msg.sender, _spender, _value);\n        \n        //return true if transaction is Success (Part of ERC 20-standard)\n        return true;\n    }\n\n    // Function For Transforing Tokens From One Account To another after Approval\n    function transferFrom(address _from, address _to, uint256 _value) public returns (bool success) \n    {   \n        //Prevents Token Self Transfer\n        require(_from!=_to,\"You cant tranfer tokens to yourself\");\n        \n        //Prevents Zero Token Transfer\n        require(_value!=0,\"You cant tranfer zero tokens\");\n        \n        //Prevents Token Transfer if quantity is more the balance of contract\n        require(_value <= balanceOf[_from],\"Not Enough balance to transfer\");\n        \n        //Prevents Token Transfer if quantity is more the allowance of spender\n        require(_value <= allowance[_from][_to],\"Not Enough allowance\");\n        \n        //Token balance of owner is reduced\n        balanceOf[_from] -= _value;\n        \n        //Token balance of beneficiary is increased\n        balanceOf[_to] += _value;\n        \n        // Allowance of spender is reduced\n        allowance[_from][_to] -= _value;\n        \n        //Emits event\n        emit Transfer(_from, _to, _value);\n        \n        //return true if transaction is Success (Part of ERC 20-standard)\n        return true;\n    }\n \n    //Function to decrease allowance of Spender\n function decreaseAllowance(address spender,uint256 subtractedValue)public returns (bool)\n  {\n    //Prevents From Deallocating Tokens To Themselves\n    require(spender != msg.sender,\"You are not allowed to make self allowance change\");\n    \n    //Prevents Zero Token Deallocating\n    require(subtractedValue != 0,\"You are not changing any allowance\");\n    \n    //Reducing allowance balance of spender\n    allowance[msg.sender][spender] = (allowance[msg.sender][spender]-(subtractedValue));\n    \n    //Emits event\n    emit Approval(msg.sender, spender, allowance[msg.sender][spender]);\n    \n    //return true if transaction is Success (Part of ERC 20-standard)\n    return true;\n  }\n  //Function to get allowance value\n function getallowance(address _from,address _to)public view returns(uint)\n {\n      return allowance[_from][_to];\n }\n}",
  "sourcePath": "/home/vimal/Project clone/ced-b4-g01/contracts/OxidaneToken.sol",
  "compiler": {
    "name": "solc",
    "version": "0.6.1+commit.e6f7d5a4.Emscripten.clang"
  },
  "schemaVersion": "3.0.23",
  "updatedAt": "2020-08-08T14:19:12.594Z",
  "networkType": "ethereum",
  "devdoc": {
    "methods": {}
  },
  "userdoc": {
    "methods": {}
  }
}