{
  "contractName": "TokenSale",
  "abi": [
    {
      "inputs": [
        {
          "internalType": "contract OxidaneToken",
          "name": "_token",
          "type": "address"
        }
      ],
      "stateMutability": "nonpayable",
      "type": "constructor"
    },
    {
      "anonymous": false,
      "inputs": [
        {
          "indexed": false,
          "internalType": "address",
          "name": "account",
          "type": "address"
        },
        {
          "indexed": false,
          "internalType": "uint256",
          "name": "amount",
          "type": "uint256"
        },
        {
          "indexed": false,
          "internalType": "uint256",
          "name": "customerno",
          "type": "uint256"
        },
        {
          "indexed": false,
          "internalType": "uint256",
          "name": "time",
          "type": "uint256"
        }
      ],
      "name": "TokenPurchase",
      "type": "event"
    },
    {
      "anonymous": false,
      "inputs": [
        {
          "indexed": false,
          "internalType": "address",
          "name": "account",
          "type": "address"
        },
        {
          "indexed": false,
          "internalType": "uint256",
          "name": "amount",
          "type": "uint256"
        }
      ],
      "name": "TokensSold",
      "type": "event"
    },
    {
      "inputs": [],
      "name": "etherpricesum",
      "outputs": [
        {
          "internalType": "uint256",
          "name": "",
          "type": "uint256"
        }
      ],
      "stateMutability": "view",
      "type": "function",
      "constant": true
    },
    {
      "inputs": [],
      "name": "rate",
      "outputs": [
        {
          "internalType": "uint256",
          "name": "",
          "type": "uint256"
        }
      ],
      "stateMutability": "view",
      "type": "function",
      "constant": true
    },
    {
      "inputs": [],
      "name": "token",
      "outputs": [
        {
          "internalType": "contract OxidaneToken",
          "name": "",
          "type": "address"
        }
      ],
      "stateMutability": "view",
      "type": "function",
      "constant": true
    },
    {
      "inputs": [],
      "name": "tokenpurchasenumber",
      "outputs": [
        {
          "internalType": "uint256",
          "name": "",
          "type": "uint256"
        }
      ],
      "stateMutability": "view",
      "type": "function",
      "constant": true
    },
    {
      "inputs": [
        {
          "internalType": "uint256",
          "name": "_tokenAmount",
          "type": "uint256"
        },
        {
          "internalType": "uint256",
          "name": "etherprice",
          "type": "uint256"
        },
        {
          "internalType": "uint256",
          "name": "buyer",
          "type": "uint256"
        },
        {
          "internalType": "uint256",
          "name": "customerno",
          "type": "uint256"
        }
      ],
      "name": "buyTokens",
      "outputs": [],
      "stateMutability": "payable",
      "type": "function",
      "payable": true
    },
    {
      "inputs": [
        {
          "internalType": "uint256",
          "name": "_amount",
          "type": "uint256"
        },
        {
          "internalType": "uint256",
          "name": "_etherAmount",
          "type": "uint256"
        }
      ],
      "name": "sellTokens",
      "outputs": [],
      "stateMutability": "nonpayable",
      "type": "function"
    }
  ],
  "bytecode": "0x60806040526001805534801561001457600080fd5b50604051610d23380380610d238339818101604052602081101561003757600080fd5b8101908080519060200190929190505050806000806101000a81548173ffffffffffffffffffffffffffffffffffffffff021916908373ffffffffffffffffffffffffffffffffffffffff16021790555050610c8b806100986000396000f3fe6080604052600436106100555760003560e01c80630289bafb1461005a5780632c4e722e1461008557806355600d5b146100b0578063a11d1371146100fc578063ed9772b614610127578063fc0c546a1461016c575b600080fd5b34801561006657600080fd5b5061006f6101c3565b6040518082815260200191505060405180910390f35b34801561009157600080fd5b5061009a6101c9565b6040518082815260200191505060405180910390f35b6100fa600480360360808110156100c657600080fd5b81019080803590602001909291908035906020019092919080359060200190929190803590602001909291905050506101cf565b005b34801561010857600080fd5b506101116107d3565b6040518082815260200191505060405180910390f35b34801561013357600080fd5b5061016a6004803603604081101561014a57600080fd5b8101908080359060200190929190803590602001909291905050506107d9565b005b34801561017857600080fd5b50610181610bc5565b604051808273ffffffffffffffffffffffffffffffffffffffff1673ffffffffffffffffffffffffffffffffffffffff16815260200191505060405180910390f35b60025481565b60015481565b6101d7610bea565b6000809054906101000a900473ffffffffffffffffffffffffffffffffffffffff1673ffffffffffffffffffffffffffffffffffffffff166370a08231306040518263ffffffff1660e01b8152600401808273ffffffffffffffffffffffffffffffffffffffff1673ffffffffffffffffffffffffffffffffffffffff16815260200191505060206040518083038186803b15801561027557600080fd5b505afa158015610289573d6000803e3d6000fd5b505050506040513d602081101561029f57600080fd5b8101908080519060200190929190505050851115610325576040517f08c379a00000000000000000000000000000000000000000000000000000000081526004018080602001828103825260128152602001807f4e6f7420456e6f7567682042616c616e6365000000000000000000000000000081525060200191505060405180910390fd5b600084141561039c576040517f08c379a00000000000000000000000000000000000000000000000000000000081526004018080602001828103825260178152602001807f457468657250726963652063616e74206265207a65726f00000000000000000081525060200191505060405180910390fd5b60008314156103b15760328160000181815250505b60018314156103c65760648160000181815250505b8060000151851115610423576040517f08c379a000000000000000000000000000000000000000000000000000000000815260040180806020018281038252602a815260200180610bfe602a913960400191505060405180910390fd5b4262015180600560003373ffffffffffffffffffffffffffffffffffffffff1673ffffffffffffffffffffffffffffffffffffffff1681526020019081526020016000205401111561052f57806000015185600460003373ffffffffffffffffffffffffffffffffffffffff1673ffffffffffffffffffffffffffffffffffffffff1681526020019081526020016000205401111561052a576040517f08c379a00000000000000000000000000000000000000000000000000000000081526004018080602001828103825260148152602001807f4578636565646564204461696c792d6c696d697400000000000000000000000081525060200191505060405180910390fd5b6105ba565b6000600560003373ffffffffffffffffffffffffffffffffffffffff1673ffffffffffffffffffffffffffffffffffffffff168152602001908152602001600020819055506000600460003373ffffffffffffffffffffffffffffffffffffffff1673ffffffffffffffffffffffffffffffffffffffff168152602001908152602001600020819055505b6000809054906101000a900473ffffffffffffffffffffffffffffffffffffffff1673ffffffffffffffffffffffffffffffffffffffff1663a9059cbb33876040518363ffffffff1660e01b8152600401808373ffffffffffffffffffffffffffffffffffffffff1673ffffffffffffffffffffffffffffffffffffffff16815260200182815260200192505050602060405180830381600087803b15801561066257600080fd5b505af1158015610676573d6000803e3d6000fd5b505050506040513d602081101561068c57600080fd5b8101908080519060200190929190505050508360036000828254019250508190555060026000815480929190600101919050555084600460003373ffffffffffffffffffffffffffffffffffffffff1673ffffffffffffffffffffffffffffffffffffffff1681526020019081526020016000206000828254019250508190555042600560003373ffffffffffffffffffffffffffffffffffffffff1673ffffffffffffffffffffffffffffffffffffffff168152602001908152602001600020819055507f347f5f0051b895093800553e6e78ef332849e2552639a4f5ffe66535788ae07833868442604051808573ffffffffffffffffffffffffffffffffffffffff1673ffffffffffffffffffffffffffffffffffffffff16815260200184815260200183815260200182815260200194505050505060405180910390a15050505050565b60035481565b6000821415610850576040517f08c379a00000000000000000000000000000000000000000000000000000000081526004018080602001828103825260188152602001807f546f6b656e616d6f756e742043616e74206265207a65726f000000000000000081525060200191505060405180910390fd5b816000809054906101000a900473ffffffffffffffffffffffffffffffffffffffff1673ffffffffffffffffffffffffffffffffffffffff166370a08231336040518263ffffffff1660e01b8152600401808273ffffffffffffffffffffffffffffffffffffffff1673ffffffffffffffffffffffffffffffffffffffff16815260200191505060206040518083038186803b1580156108ef57600080fd5b505afa158015610903573d6000803e3d6000fd5b505050506040513d602081101561091957600080fd5b8101908080519060200190929190505050101561099e576040517f08c379a000000000000000000000000000000000000000000000000000000000815260040180806020018281038252601c8152602001807f596f7520646f6e74206861766520656e6f7567682062616c616e63650000000081525060200191505060405180910390fd5b804710156109f7576040517f08c379a000000000000000000000000000000000000000000000000000000000815260040180806020018281038252602e815260200180610c28602e913960400191505060405180910390fd5b6000809054906101000a900473ffffffffffffffffffffffffffffffffffffffff1673ffffffffffffffffffffffffffffffffffffffff166323b872dd3330856040518463ffffffff1660e01b8152600401808473ffffffffffffffffffffffffffffffffffffffff1673ffffffffffffffffffffffffffffffffffffffff1681526020018373ffffffffffffffffffffffffffffffffffffffff1673ffffffffffffffffffffffffffffffffffffffff1681526020018281526020019350505050602060405180830381600087803b158015610ad357600080fd5b505af1158015610ae7573d6000803e3d6000fd5b505050506040513d6020811015610afd57600080fd5b8101908080519060200190929190505050503373ffffffffffffffffffffffffffffffffffffffff166108fc829081150290604051600060405180830381858888f19350505050158015610b55573d6000803e3d6000fd5b507f57d61f3ccd4ccd25ec5d234d6049553a586fac134c85c98d0b0d9d5724f4e43e3383604051808373ffffffffffffffffffffffffffffffffffffffff1673ffffffffffffffffffffffffffffffffffffffff1681526020018281526020019250505060405180910390a15050565b6000809054906101000a900473ffffffffffffffffffffffffffffffffffffffff1681565b604051806020016040528060008152509056fe546f6b656e20616d6f756e74206973206265796f6e6420796f75722063617465676f7279206c696d6974436f6e747261637420646f6e74206861766520656e6f75676820657468657220746f2073656c6c20746f6b656e73a2646970667358221220e34f15074f3bffd3e06e65a24713460570142f6a953438b96faa0054c16be22764736f6c63430006010033",
  "source": "// SPDX-License-Identifier: MIT\npragma solidity ^0.6.0;\nimport \"./OxidaneToken.sol\";\n\ncontract TokenSale\n{\n    //Token Contract instance state-variable\n    OxidaneToken public token;\n    \n    //Rate of Token in Dollar\n    uint public rate =1 ;//dollar - rate of 1 token\n    \n    //For Storing Total number of Token purchases\n    uint public tokenpurchasenumber;\n    \n    // For Storing Total Sum of Token price(For Finding avg Token Price in market)\n    uint public etherpricesum;\n    \n    // For buyer Type\n   enum buyertype{individual,industry}\n   \n    //For Storing Tokenamount of token Purchase for restricting daily limits\n    mapping(address=>uint) tokenamount;\n    \n    //For Storing Timestamp of token Purchase for restricting daily limits\n    mapping(address=>uint) timestamp;\n    \n    //Event For Token PUrchase\n    event TokenPurchase(address account,uint amount,uint customerno,uint time);\n    \n    //Event For Token Selling\n    event TokensSold(address account, uint amount);\n\n    //Struct for temporary stoage variable\n      struct tempstorage\n      {\n          uint numberstore;\n      }  \n        \n        constructor(OxidaneToken _token)public\n        {\n        //Creating Token Instance\n        token = _token;\n        \n        }\n   \n    //Function For buying Tokens and receiving payement\n    function buyTokens(uint _tokenAmount,uint etherprice,uint buyer,uint customerno) public payable\n    {\n        //Creates Temporary instance of struct for temporary variable\n        tempstorage memory tempvar;\n        \n        //Prevents Token Purchase if tokenbalance of contract is below the purchase amount\n        require(_tokenAmount <= token.balanceOf(address(this)),\"Not Enough Balance\");\n        \n        //Prevents user from purchasing tokens with zero price \n        require(etherprice != 0,\"EtherPrice cant be zero\");\n\n        //if buyer is of individual type\n        if(buyer==0)\n        {\n            //Daily limit for Individual category is 50 tokens\n            tempvar.numberstore=50;\n        }\n        //if buyer is of industry type\n        if(buyer==1)\n        {\n            //Daily limit for Industry category is 100 tokens\n            tempvar.numberstore=100;\n        }\n        //checks whether quantity is less than daily limit\n        require(_tokenAmount<= tempvar.numberstore,\"Token amount is beyond your category limit\");\n            \n        //checks whether user is buying for first time in a day or not\n        if(timestamp[msg.sender]+24 hours>now)\n        {\n          // if it is not first time then checks the sum of todays purchase quantity & current purchase quantity is less than quantitty\n          require(tokenamount[msg.sender] +_tokenAmount<= tempvar.numberstore,\"Exceeded Daily-limit\");\n        }\n         else\n        {\n          // Timestamp of previous purchase is set to zero if its first purchase in a day\n          timestamp[msg.sender]=0;\n          \n          //Total purchase quantity of previous purchase is set to zero\n          tokenamount[msg.sender]=0;\n        }\n        \n            //Transfer Token from contract to buyer\n            token.transfer(msg.sender,_tokenAmount);\n        \n            //sums token-etherprice (Used for calculating avg token-price in market)\n            etherpricesum+=etherprice;\n        \n            //Increments Total number of Token purchases\n            tokenpurchasenumber++;\n        \n            //Tokenamount is stored for Daily-Limit\n            tokenamount[msg.sender]+=_tokenAmount;\n           \n           //Timestamp is stored for Daily-Limit\n            timestamp[msg.sender]=now;\n            \n        //Emits event after purchase\n        emit TokenPurchase(msg.sender,_tokenAmount,customerno,now);\n\n    }\n    \n        //Function to Sell Tokens \n    function sellTokens(uint _amount,uint _etherAmount) public \n    {\n        //User cant sell Zero Tokens\n        require(_amount!=0,\"Tokenamount Cant be zero\");\n        \n        // User can't sell more tokens than they have\n        require(token.balanceOf(msg.sender) >= _amount,\"You dont have enough balance\");\n\n        // Require Contract has enough Ether\n        require(address(this).balance >= _etherAmount,\"Contract dont have enough ether to sell tokens\");\n\n        // Transfer Token from seller to this contract\n        token.transferFrom(msg.sender, address(this), _amount);\n    \n        //Transfering ether to token seller\n        msg.sender.transfer(_etherAmount);\n\n        // Emit an event\n        emit TokensSold(msg.sender, _amount);\n    }\n\n\n}",
  "sourcePath": "/home/vimal/Project clone/ced-b4-g01/contracts/TokenSale.sol",
  "compiler": {
    "name": "solc",
    "version": "0.6.1+commit.e6f7d5a4.Emscripten.clang"
  },
  "schemaVersion": "3.0.23",
  "updatedAt": "2020-08-08T14:19:12.598Z",
  "networkType": "ethereum",
  "devdoc": {
    "methods": {}
  },
  "userdoc": {
    "methods": {}
  }
}