{
  "contractName": "Waterexchange",
  "abi": [
    {
      "inputs": [],
      "name": "_owner",
      "outputs": [
        {
          "internalType": "address",
          "name": "",
          "type": "address"
        }
      ],
      "stateMutability": "view",
      "type": "function",
      "constant": true
    },
    {
      "inputs": [],
      "name": "baserate",
      "outputs": [
        {
          "internalType": "uint256",
          "name": "",
          "type": "uint256"
        }
      ],
      "stateMutability": "view",
      "type": "function",
      "constant": true
    },
    {
      "inputs": [
        {
          "internalType": "uint256",
          "name": "",
          "type": "uint256"
        }
      ],
      "name": "exchange",
      "outputs": [
        {
          "internalType": "address",
          "name": "",
          "type": "address"
        }
      ],
      "stateMutability": "view",
      "type": "function",
      "constant": true
    },
    {
      "inputs": [],
      "name": "exchangeCount",
      "outputs": [
        {
          "internalType": "uint256",
          "name": "",
          "type": "uint256"
        }
      ],
      "stateMutability": "view",
      "type": "function",
      "constant": true
    },
    {
      "inputs": [],
      "name": "isOwner",
      "outputs": [
        {
          "internalType": "bool",
          "name": "",
          "type": "bool"
        }
      ],
      "stateMutability": "view",
      "type": "function",
      "constant": true
    },
    {
      "inputs": [
        {
          "internalType": "address",
          "name": "",
          "type": "address"
        }
      ],
      "name": "localExchange",
      "outputs": [
        {
          "internalType": "uint256",
          "name": "drinkingWaterquantity",
          "type": "uint256"
        },
        {
          "internalType": "uint256",
          "name": "nonDrinkingwaterQuantity",
          "type": "uint256"
        },
        {
          "internalType": "uint256",
          "name": "exchangeNumber",
          "type": "uint256"
        },
        {
          "internalType": "bool",
          "name": "registered",
          "type": "bool"
        },
        {
          "internalType": "string",
          "name": "location",
          "type": "string"
        },
        {
          "internalType": "string",
          "name": "certificate",
          "type": "string"
        },
        {
          "internalType": "enum Waterexchange.cluster",
          "name": "region",
          "type": "uint8"
        },
        {
          "internalType": "address",
          "name": "exchangeAddress",
          "type": "address"
        }
      ],
      "stateMutability": "view",
      "type": "function",
      "constant": true
    },
    {
      "inputs": [
        {
          "internalType": "address",
          "name": "",
          "type": "address"
        }
      ],
      "name": "localExchangetokenrate",
      "outputs": [
        {
          "internalType": "uint256",
          "name": "nondrinkingtokenrate",
          "type": "uint256"
        },
        {
          "internalType": "uint256",
          "name": "drinkingtokenrate",
          "type": "uint256"
        },
        {
          "internalType": "uint256",
          "name": "industrynondrinkingtokenrate",
          "type": "uint256"
        },
        {
          "internalType": "uint256",
          "name": "industrydrinkingtokenrate",
          "type": "uint256"
        },
        {
          "internalType": "uint256",
          "name": "deliverycharge",
          "type": "uint256"
        }
      ],
      "stateMutability": "view",
      "type": "function",
      "constant": true
    },
    {
      "inputs": [],
      "name": "totalDrinkingWater",
      "outputs": [
        {
          "internalType": "uint256",
          "name": "",
          "type": "uint256"
        }
      ],
      "stateMutability": "view",
      "type": "function",
      "constant": true
    },
    {
      "inputs": [],
      "name": "totalNonDrinkingWater",
      "outputs": [
        {
          "internalType": "uint256",
          "name": "",
          "type": "uint256"
        }
      ],
      "stateMutability": "view",
      "type": "function",
      "constant": true
    },
    {
      "inputs": [
        {
          "internalType": "address",
          "name": "_exchangeaddr",
          "type": "address"
        },
        {
          "internalType": "string",
          "name": "_location",
          "type": "string"
        },
        {
          "internalType": "enum Waterexchange.cluster",
          "name": "_region",
          "type": "uint8"
        },
        {
          "internalType": "string",
          "name": "_certificatehash",
          "type": "string"
        }
      ],
      "name": "registerExchange",
      "outputs": [],
      "stateMutability": "nonpayable",
      "type": "function"
    },
    {
      "inputs": [
        {
          "internalType": "uint256",
          "name": "_mintamount",
          "type": "uint256"
        },
        {
          "internalType": "uint256",
          "name": "_watertypes",
          "type": "uint256"
        },
        {
          "internalType": "uint256",
          "name": "waterlevel",
          "type": "uint256"
        }
      ],
      "name": "incrementWater",
      "outputs": [],
      "stateMutability": "nonpayable",
      "type": "function"
    },
    {
      "inputs": [
        {
          "internalType": "uint256",
          "name": "_quantity",
          "type": "uint256"
        },
        {
          "internalType": "address",
          "name": "_localexchange",
          "type": "address"
        }
      ],
      "name": "buyDrinkingWater",
      "outputs": [],
      "stateMutability": "nonpayable",
      "type": "function"
    },
    {
      "inputs": [
        {
          "internalType": "uint256",
          "name": "_quantity",
          "type": "uint256"
        },
        {
          "internalType": "address",
          "name": "_localexchange",
          "type": "address"
        }
      ],
      "name": "buyNonDrinkingWater",
      "outputs": [],
      "stateMutability": "nonpayable",
      "type": "function"
    },
    {
      "inputs": [
        {
          "internalType": "uint256",
          "name": "_percentage",
          "type": "uint256"
        },
        {
          "internalType": "uint256",
          "name": "_type",
          "type": "uint256"
        },
        {
          "internalType": "uint256",
          "name": "buyertype",
          "type": "uint256"
        }
      ],
      "name": "ratecalculator",
      "outputs": [
        {
          "internalType": "uint256",
          "name": "",
          "type": "uint256"
        }
      ],
      "stateMutability": "view",
      "type": "function",
      "constant": true
    },
    {
      "inputs": [
        {
          "internalType": "uint256",
          "name": "_charge",
          "type": "uint256"
        }
      ],
      "name": "deliverycharge",
      "outputs": [],
      "stateMutability": "nonpayable",
      "type": "function"
    }
  ],
  "bytecode": "0x608060405260018055336000806101000a81548173ffffffffffffffffffffffffffffffffffffffff021916908373ffffffffffffffffffffffffffffffffffffffff160217905550611628806100576000396000f3fe608060405234801561001057600080fd5b50600436106100f55760003560e01c8063a5c0c3b811610097578063ef0348fd11610066578063ef0348fd14610559578063f01fa97f14610577578063fb25a06f146106f6578063fc5645af14610714576100f5565b8063a5c0c3b81461043d578063b2bdfa7b1461046b578063c0d74673146104b5578063ea65d08e1461050b576100f5565b806368972e50116100d357806368972e50146103475780636fa304071461036557806388f03f9f146103a75780638f32d59b1461041b576100f5565b8063316a7165146100fa5780633a9f52d61461028b57806353556559146102d9575b600080fd5b61013c6004803603602081101561011057600080fd5b81019080803573ffffffffffffffffffffffffffffffffffffffff169060200190929190505050610732565b6040518089815260200188815260200187815260200186151515158152602001806020018060200185600281111561017057fe5b60ff1681526020018473ffffffffffffffffffffffffffffffffffffffff1673ffffffffffffffffffffffffffffffffffffffff168152602001838103835287818151815260200191508051906020019080838360005b838110156101e25780820151818401526020810190506101c7565b50505050905090810190601f16801561020f5780820380516001836020036101000a031916815260200191505b50838103825286818151815260200191508051906020019080838360005b8381101561024857808201518184015260208101905061022d565b50505050905090810190601f1680156102755780820380516001836020036101000a031916815260200191505b509a505050505050505050505060405180910390f35b6102d7600480360360408110156102a157600080fd5b8101908080359060200190929190803573ffffffffffffffffffffffffffffffffffffffff1690602001909291905050506108e4565b005b610305600480360360208110156102ef57600080fd5b8101908080359060200190929190505050610b19565b604051808273ffffffffffffffffffffffffffffffffffffffff1673ffffffffffffffffffffffffffffffffffffffff16815260200191505060405180910390f35b61034f610b4c565b6040518082815260200191505060405180910390f35b6103a56004803603606081101561037b57600080fd5b81019080803590602001909291908035906020019092919080359060200190929190505050610b52565b005b6103e9600480360360208110156103bd57600080fd5b81019080803573ffffffffffffffffffffffffffffffffffffffff169060200190929190505050610d73565b604051808681526020018581526020018481526020018381526020018281526020019550505050505060405180910390f35b610423610da9565b604051808215151515815260200191505060405180910390f35b6104696004803603602081101561045357600080fd5b8101908080359060200190929190505050610e00565b005b610473610e4a565b604051808273ffffffffffffffffffffffffffffffffffffffff1673ffffffffffffffffffffffffffffffffffffffff16815260200191505060405180910390f35b6104f5600480360360608110156104cb57600080fd5b81019080803590602001909291908035906020019092919080359060200190929190505050610e6f565b6040518082815260200191505060405180910390f35b6105576004803603604081101561052157600080fd5b8101908080359060200190929190803573ffffffffffffffffffffffffffffffffffffffff169060200190929190505050610fbb565b005b6105616111f0565b6040518082815260200191505060405180910390f35b6106f46004803603608081101561058d57600080fd5b81019080803573ffffffffffffffffffffffffffffffffffffffff169060200190929190803590602001906401000000008111156105ca57600080fd5b8201836020820111156105dc57600080fd5b803590602001918460018302840111640100000000831117156105fe57600080fd5b91908080601f016020809104026020016040519081016040528093929190818152602001838380828437600081840152601f19601f820116905080830192505050505050509192919290803560ff1690602001909291908035906020019064010000000081111561066e57600080fd5b82018360208201111561068057600080fd5b803590602001918460018302840111640100000000831117156106a257600080fd5b91908080601f016020809104026020016040519081016040528093929190818152602001838380828437600081840152601f19601f8201169050808301925050505050505091929192905050506111f6565b005b6106fe611512565b6040518082815260200191505060405180910390f35b61071c611518565b6040518082815260200191505060405180910390f35b60056020528060005260406000206000915090508060000154908060010154908060020154908060030160009054906101000a900460ff1690806004018054600181600116156101000203166002900480601f0160208091040260200160405190810160405280929190818152602001828054600181600116156101000203166002900480156108035780601f106107d857610100808354040283529160200191610803565b820191906000526020600020905b8154815290600101906020018083116107e657829003601f168201915b505050505090806005018054600181600116156101000203166002900480601f0160208091040260200160405190810160405280929190818152602001828054600181600116156101000203166002900480156108a15780601f10610876576101008083540402835291602001916108a1565b820191906000526020600020905b81548152906001019060200180831161088457829003601f168201915b5050505050908060060160009054906101000a900460ff16908060060160019054906101000a900473ffffffffffffffffffffffffffffffffffffffff16905088565b8073ffffffffffffffffffffffffffffffffffffffff163373ffffffffffffffffffffffffffffffffffffffff161415610986576040517f08c379a00000000000000000000000000000000000000000000000000000000081526004018080602001828103825260118152602001807f45786368616e67652063616e742062757900000000000000000000000000000081525060200191505060405180910390fd5b60008214156109fd576040517f08c379a00000000000000000000000000000000000000000000000000000000081526004018080602001828103825260118152602001807f45786368616e67652063616e742062757900000000000000000000000000000081525060200191505060405180910390fd5b81600560008373ffffffffffffffffffffffffffffffffffffffff1673ffffffffffffffffffffffffffffffffffffffff168152602001908152602001600020600001541015610ab5576040517f08c379a000000000000000000000000000000000000000000000000000000000815260040180806020018281038252601c8152602001807f4e6f7420656e6f75676820776174657220696e2045786368616e67650000000081525060200191505060405180910390fd5b81600560008373ffffffffffffffffffffffffffffffffffffffff1673ffffffffffffffffffffffffffffffffffffffff16815260200190815260200160002060000160008282540392505081905550816003600082825403925050819055505050565b60076020528060005260406000206000915054906101000a900473ffffffffffffffffffffffffffffffffffffffff1681565b60025481565b6000821415610c605782600560003373ffffffffffffffffffffffffffffffffffffffff1673ffffffffffffffffffffffffffffffffffffffff16815260200190815260200160002060000160008282540192505081905550610bb781836000610e6f565b600660003373ffffffffffffffffffffffffffffffffffffffff1673ffffffffffffffffffffffffffffffffffffffff16815260200190815260200160002060010181905550610c0981836001610e6f565b600660003373ffffffffffffffffffffffffffffffffffffffff1673ffffffffffffffffffffffffffffffffffffffff16815260200190815260200160002060030181905550826003600082825401925050819055505b6001821415610d6e5782600560003373ffffffffffffffffffffffffffffffffffffffff1673ffffffffffffffffffffffffffffffffffffffff16815260200190815260200160002060010160008282540192505081905550610cc581836000610e6f565b600660003373ffffffffffffffffffffffffffffffffffffffff1673ffffffffffffffffffffffffffffffffffffffff16815260200190815260200160002060000181905550610d1781836001610e6f565b600660003373ffffffffffffffffffffffffffffffffffffffff1673ffffffffffffffffffffffffffffffffffffffff16815260200190815260200160002060020181905550826004600082825401925050819055505b505050565b60066020528060005260406000206000915090508060000154908060010154908060020154908060030154908060040154905085565b60008060009054906101000a900473ffffffffffffffffffffffffffffffffffffffff1673ffffffffffffffffffffffffffffffffffffffff163373ffffffffffffffffffffffffffffffffffffffff1614905090565b80600660003373ffffffffffffffffffffffffffffffffffffffff1673ffffffffffffffffffffffffffffffffffffffff1681526020019081526020016000206004018190555050565b6000809054906101000a900473ffffffffffffffffffffffffffffffffffffffff1681565b6000610e7961151e565b6000841415610f0557605f8510610e9e57600560015402816020018181525050610f04565b605f85108015610eaf5750605a8510155b15610ec857600660015402816020018181525050610f03565b605a85108015610ed9575060558510155b15610ef257600760015402816020018181525050610f02565b6008600154028160200181815250505b5b5b5b6001841415610f9157605f8510610f2a57600360015402816020018181525050610f90565b605f85108015610f3b5750605a8510155b15610f5457600460015402816020018181525050610f8f565b605a85108015610f65575060558510155b15610f7e57600560015402816020018181525050610f8e565b6006600154028160200181815250505b5b5b5b6001831415610fac5760018160200181815101915081815250505b80602001519150509392505050565b8073ffffffffffffffffffffffffffffffffffffffff163373ffffffffffffffffffffffffffffffffffffffff16141561105d576040517f08c379a00000000000000000000000000000000000000000000000000000000081526004018080602001828103825260118152602001807f45786368616e67652063616e742062757900000000000000000000000000000081525060200191505060405180910390fd5b60008214156110d4576040517f08c379a00000000000000000000000000000000000000000000000000000000081526004018080602001828103825260118152602001807f45786368616e67652063616e742062757900000000000000000000000000000081525060200191505060405180910390fd5b81600560008373ffffffffffffffffffffffffffffffffffffffff1673ffffffffffffffffffffffffffffffffffffffff16815260200190815260200160002060010154101561118c576040517f08c379a000000000000000000000000000000000000000000000000000000000815260040180806020018281038252601c8152602001807f4e6f7420656e6f75676820776174657220696e2045786368616e67650000000081525060200191505060405180910390fd5b81600560008373ffffffffffffffffffffffffffffffffffffffff1673ffffffffffffffffffffffffffffffffffffffff16815260200190815260200160002060010160008282540392505081905550816004600082825403925050819055505050565b60015481565b6111fe610da9565b611270576040517f08c379a00000000000000000000000000000000000000000000000000000000081526004018080602001828103825260208152602001807f4f776e61626c653a2063616c6c6572206973206e6f7420746865206f776e657281525060200191505060405180910390fd5b6002600081548092919060010191905055508360076000600254815260200190815260200160002060006101000a81548173ffffffffffffffffffffffffffffffffffffffff021916908373ffffffffffffffffffffffffffffffffffffffff160217905550600254600560008673ffffffffffffffffffffffffffffffffffffffff1673ffffffffffffffffffffffffffffffffffffffff168152602001908152602001600020600201819055506001600560008673ffffffffffffffffffffffffffffffffffffffff1673ffffffffffffffffffffffffffffffffffffffff16815260200190815260200160002060030160006101000a81548160ff02191690831515021790555082600560008673ffffffffffffffffffffffffffffffffffffffff1673ffffffffffffffffffffffffffffffffffffffff16815260200190815260200160002060040190805190602001906113d092919061154d565b5083600560008673ffffffffffffffffffffffffffffffffffffffff1673ffffffffffffffffffffffffffffffffffffffff16815260200190815260200160002060060160016101000a81548173ffffffffffffffffffffffffffffffffffffffff021916908373ffffffffffffffffffffffffffffffffffffffff16021790555081600560008673ffffffffffffffffffffffffffffffffffffffff1673ffffffffffffffffffffffffffffffffffffffff16815260200190815260200160002060060160006101000a81548160ff021916908360028111156114b057fe5b021790555080600560008673ffffffffffffffffffffffffffffffffffffffff1673ffffffffffffffffffffffffffffffffffffffff168152602001908152602001600020600501908051906020019061150b92919061154d565b5050505050565b60035481565b60045481565b6040518060a0016040528060008152602001600081526020016000815260200160008152602001600081525090565b828054600181600116156101000203166002900490600052602060002090601f016020900481019282601f1061158e57805160ff19168380011785556115bc565b828001600101855582156115bc579182015b828111156115bb5782518255916020019190600101906115a0565b5b5090506115c991906115cd565b5090565b6115ef91905b808211156115eb5760008160009055506001016115d3565b5090565b9056fea2646970667358221220aa9823f1f8d7eccde357b1855f7146385d433a1529e57531a311c018df3d565d64736f6c63430006010033",
  "source": "// SPDX-License-Identifier: MIT\npragma solidity ^0.6.0;\nimport \"./Owner.sol\";\n\ncontract Waterexchange is Owner\n{\n    //No of Tokens for 1000 litre \n    uint public baserate=1;\n\n    //To count no of exchanges\n    uint public exchangeCount;\n \n    //To store total quantity of water in the exchange   \n    uint public totalDrinkingWater;\n\n    //To store total quantity of water in the exchange\n    uint public totalNonDrinkingWater;\n\n    //Region of Exchange\n    enum cluster{Central,North,South}   \n    \n    //To store exchange details\n    struct localExchangedetail \n    {\n       \n        uint  drinkingWaterquantity;\n        uint  nonDrinkingwaterQuantity;\n        uint exchangeNumber;\n        bool registered;\n        string location;\n        string certificate;\n        cluster region;\n        address exchangeAddress;\n    }\n    \n    //To store Exchange tokenrates\n    struct tokenrate\n    {\n        uint nondrinkingtokenrate;\n        uint drinkingtokenrate;\n        uint industrynondrinkingtokenrate;\n        uint industrydrinkingtokenrate;\n        uint deliverycharge;\n    }\n   \n    //To store exchange details\n    mapping(address=>localExchangedetail)public localExchange;\n    \n    //To store exchange tokenrate details\n    mapping(address=>tokenrate)public localExchangetokenrate;\n    \n    //To store registered exchange address with exchange number  \n    mapping(uint=>address) public exchange;\n\n   \n   function registerExchange(address _exchangeaddr,string memory _location,cluster _region,string memory _certificatehash) public onlyOwner\n        \n        {\n        // Incrementing Exchange Number\n            exchangeCount++;\n        \n        // Storing Exchange Address With Exchange number\n            exchange[exchangeCount] = _exchangeaddr;\n        \n        //Storing Exchange Number\n            localExchange[_exchangeaddr].exchangeNumber = exchangeCount ;         \n        \n        // To flag whether Exchange is registered or not \n            localExchange[_exchangeaddr].registered = true; \n\n        // location of exchange\n            localExchange[_exchangeaddr].location = _location;\n        \n        // Storing Exchange Address With Exchange With Exchange Address\n            localExchange[_exchangeaddr].exchangeAddress = _exchangeaddr;\n        \n        // Storing Exchange Region With Exchange Address\n            localExchange[_exchangeaddr].region = _region;\n        \n        // Storing Exchange Registration certificate IPFS hash With Exchange Address\n            localExchange[_exchangeaddr].certificate = _certificatehash;\n \n        }\n    \n        //Function For Water Exchanges To Increment Water \n    function  incrementWater (uint _mintamount, uint _watertypes,uint waterlevel)public\n    \n    {\n        //If Water Type Is Drinking\n        if(_watertypes==0)\n        {\n            //Increments Drinking Water Quantity\n            localExchange[msg.sender].drinkingWaterquantity += _mintamount;\n            \n            //Updating Drinking waterrate of individual category with value given by the function ratecalculator\n            \n            //Ratecalculator Uses Damwater Level, Watertype & Buyertype In That Region To Calculate Water Price \n            localExchangetokenrate[msg.sender].drinkingtokenrate = ratecalculator(waterlevel, _watertypes,0);\n           \n            //Updating Drinking waterrate of industry category with value given by the function ratecalculator\n            localExchangetokenrate[msg.sender].industrydrinkingtokenrate = ratecalculator(waterlevel, _watertypes,1);\n            \n            //Increments Oxidane Total Drinking Water\n            totalDrinkingWater += _mintamount;\n        }\n        \n        //If Water Type Is Non-Drinking\n           if(_watertypes==1)\n        {\n            //Increments Non-Drinking Water Quantity\n            localExchange[msg.sender].nonDrinkingwaterQuantity += _mintamount;\n            \n            //Updating Non-Drinking waterrate of individual category with value given by the function ratecalculator\n            //Ratecalculator Uses Damwater Level & Watertype In That Region To Calculate Water Price \n            localExchangetokenrate[msg.sender].nondrinkingtokenrate = ratecalculator(waterlevel, _watertypes,0);\n            \n             //Updating Non-Drinking waterrate of industry category with value given by the function ratecalculator\n            localExchangetokenrate[msg.sender].industrynondrinkingtokenrate = ratecalculator(waterlevel, _watertypes,1);\n            \n            //Increments Oxidane Total Non-Drinking Water\n            totalNonDrinkingWater += _mintamount;\n\n        }\n\n        \n\n    }\n\n//Function To Buy Drinking Water\nfunction buyDrinkingWater(uint _quantity,address _localexchange)public\n    {\n        // Buyer cant be himself\n        require(msg.sender!=_localexchange,\"Exchange cant buy\");\n        \n        //Cant buy zero quantity\n        require(_quantity!=0,\"Exchange cant buy\");\n       \n        //Cant buy more quantity than what exchange have\n        require(localExchange[_localexchange].drinkingWaterquantity>=_quantity,\"Not enough water in Exchange\");\n        \n        //Reducing the quantity from drinking water balance of exchange\n        localExchange[_localexchange].drinkingWaterquantity -= _quantity;\n        \n        //Reducing the quantity from drinking water balance of oxidane\n        totalDrinkingWater -= _quantity;\n   \n    }\n\n//Function To Buy Non-Drinking Water\nfunction buyNonDrinkingWater(uint _quantity,address _localexchange)public\n    {\n        // Buyer cant be himself\n        require(msg.sender!=_localexchange,\"Exchange cant buy\");\n        \n        //Cant buy zero quantity\n        require(_quantity!=0,\"Exchange cant buy\");\n        \n        //Cant buy more quantity than what exchange have\n        require( localExchange[_localexchange].nonDrinkingwaterQuantity>=_quantity,\"Not enough water in Exchange\");\n       \n        //Reducing the quantity from drinking water balance of exchange\n        localExchange[_localexchange].nonDrinkingwaterQuantity -= _quantity;\n         \n        //Reducing the quantity from drinking water balance of oxidane\n        totalNonDrinkingWater -= _quantity;\n   \n    }\n//Function to calculate token rate per 1000litre\n// This function use the Waterlevel Percentage of dam in each exchange cluster region to calculate token rate\n// Tokenrate is inversly proportional to waterlevel\nfunction ratecalculator(uint _percentage,uint _type,uint buyertype) public view returns(uint)\n{\n        //creating a temporary instance of struct  tokenrate for temporary storage variable\n            tokenrate memory tempstorage;\n        //If Water Type is Drinking\n        if(_type==0)\n        {\n            //If waterlevel percentage is greater or equal to 95%  then 1000l will cost 5 OXD\n            if(_percentage >= 95)\n            {\n                tempstorage.drinkingtokenrate = baserate*5;\n            }\n            \n            //If waterlevel percentage is between 90 and 95 % then 1000l will cost 6 OXD\n            else if(_percentage < 95 && _percentage>=90)\n            {\n                tempstorage.drinkingtokenrate = baserate*6;\n            }\n            \n            //If waterlevel percentage is between 90 and 85 then 1000l will cost 7 OXD\n            else if(_percentage < 90 && _percentage>=85)\n            {\n            tempstorage.drinkingtokenrate = baserate*7;\n            }\n            \n            //If waterlevel percentage is less than 85 then 1000l will cost 8 OXD\n            else\n            {\n            tempstorage.drinkingtokenrate = baserate*8;\n            }\n        }\n        \n        //If Water Type is Non-Drinking\n        if(_type==1)\n        {\n            //If waterlevel percentage is greater or equal to 95  then 1000l Non-Drinking water will cost 3 OXD\n            if(_percentage >= 95)\n            {\n                tempstorage.drinkingtokenrate = baserate*3;\n            }\n            \n            //If waterlevel percentage is between 90 and 95 then 1000lNon-Drinking water will cost 4 OXD\n            else if(_percentage < 95 && _percentage>=90)\n            {\n                tempstorage.drinkingtokenrate = baserate*4;\n            }\n            \n            //If waterlevel percentage is between 90 and 85 then 1000lNon-Drinking water will cost 5 OXD\n            else if(_percentage < 90 && _percentage>=85)\n            {\n                tempstorage.drinkingtokenrate = baserate * 5;\n            }\n            \n            //If waterlevel percentage is less than 85 then 1000lNon-Drinking water will cost 6 OXD\n            else\n            {\n                tempstorage.drinkingtokenrate = baserate * 6;\n            }  \n        }\n        \n        //if buyertype is of industry type\n        if(buyertype==1)\n        {\n            //User have to pay additional token\n            tempstorage.drinkingtokenrate+=1;\n        }\n        \n        //returns the calculated value\n    return tempstorage.drinkingtokenrate;\n}\n\n//Function to Update Delivery Charge\nfunction deliverycharge(uint _charge)public\n{\n//Stores delivery charge with Water-exchange address\nlocalExchangetokenrate[msg.sender].deliverycharge =_charge;\n\n}\n  \n}",
  "sourcePath": "/home/vimal/Project clone/ced-b4-g01/contracts/Waterexchange.sol",
  "compiler": {
    "name": "solc",
    "version": "0.6.1+commit.e6f7d5a4.Emscripten.clang"
  },
  "schemaVersion": "3.0.23",
  "updatedAt": "2020-08-08T14:19:12.603Z",
  "networkType": "ethereum",
  "devdoc": {
    "methods": {}
  },
  "userdoc": {
    "methods": {}
  }
}