{
  "contractName": "Watersale",
  "abi": [
    {
      "inputs": [
        {
          "internalType": "contract Waterexchange",
          "name": "_exchange",
          "type": "address"
        },
        {
          "internalType": "contract OxidaneToken",
          "name": "_token",
          "type": "address"
        }
      ],
      "stateMutability": "nonpayable",
      "type": "constructor"
    },
    {
      "anonymous": false,
      "inputs": [
        {
          "indexed": true,
          "internalType": "address",
          "name": "exchangeaddr",
          "type": "address"
        },
        {
          "indexed": true,
          "internalType": "uint256",
          "name": "globalpurchasenumber",
          "type": "uint256"
        },
        {
          "indexed": false,
          "internalType": "uint256",
          "name": "_time",
          "type": "uint256"
        },
        {
          "indexed": false,
          "internalType": "uint256",
          "name": "customerno",
          "type": "uint256"
        },
        {
          "indexed": false,
          "internalType": "uint256",
          "name": "watertype",
          "type": "uint256"
        },
        {
          "indexed": false,
          "internalType": "uint256",
          "name": "quantity",
          "type": "uint256"
        }
      ],
      "name": "DeliveryConfirmation",
      "type": "event"
    },
    {
      "anonymous": false,
      "inputs": [
        {
          "indexed": true,
          "internalType": "address",
          "name": "exchangeaddr",
          "type": "address"
        },
        {
          "indexed": true,
          "internalType": "uint256",
          "name": "globalpurchasenumber",
          "type": "uint256"
        },
        {
          "indexed": false,
          "internalType": "uint256",
          "name": "_time",
          "type": "uint256"
        },
        {
          "indexed": false,
          "internalType": "address",
          "name": "customer",
          "type": "address"
        }
      ],
      "name": "DeliveryRejection",
      "type": "event"
    },
    {
      "anonymous": false,
      "inputs": [
        {
          "indexed": true,
          "internalType": "address",
          "name": "exchangeaddr",
          "type": "address"
        },
        {
          "indexed": true,
          "internalType": "uint256",
          "name": "globalpurchasenumber",
          "type": "uint256"
        },
        {
          "indexed": false,
          "internalType": "uint256",
          "name": "_time",
          "type": "uint256"
        },
        {
          "indexed": false,
          "internalType": "uint256",
          "name": "tokenamount",
          "type": "uint256"
        },
        {
          "indexed": false,
          "internalType": "uint256",
          "name": "watertype",
          "type": "uint256"
        },
        {
          "indexed": false,
          "internalType": "uint256",
          "name": "quantity",
          "type": "uint256"
        }
      ],
      "name": "WaterDelivery",
      "type": "event"
    },
    {
      "anonymous": false,
      "inputs": [
        {
          "indexed": true,
          "internalType": "address",
          "name": "exchangeaddr",
          "type": "address"
        },
        {
          "indexed": true,
          "internalType": "uint256",
          "name": "_purchaseNumber",
          "type": "uint256"
        },
        {
          "indexed": true,
          "internalType": "uint256",
          "name": "globalpurchasenumber",
          "type": "uint256"
        },
        {
          "indexed": false,
          "internalType": "uint256",
          "name": "_quantity",
          "type": "uint256"
        },
        {
          "indexed": false,
          "internalType": "uint256",
          "name": "_time",
          "type": "uint256"
        },
        {
          "indexed": false,
          "internalType": "string",
          "name": "_deliverylocation",
          "type": "string"
        },
        {
          "indexed": false,
          "internalType": "uint256",
          "name": "tokenamount",
          "type": "uint256"
        },
        {
          "indexed": false,
          "internalType": "uint256",
          "name": "customerno",
          "type": "uint256"
        },
        {
          "indexed": false,
          "internalType": "uint256",
          "name": "watertype",
          "type": "uint256"
        },
        {
          "indexed": false,
          "internalType": "string",
          "name": "phoneno",
          "type": "string"
        }
      ],
      "name": "WaterPurchase",
      "type": "event"
    },
    {
      "inputs": [
        {
          "internalType": "address",
          "name": "",
          "type": "address"
        }
      ],
      "name": "deliveryNumber",
      "outputs": [
        {
          "internalType": "uint256",
          "name": "",
          "type": "uint256"
        }
      ],
      "stateMutability": "view",
      "type": "function",
      "constant": true
    },
    {
      "inputs": [],
      "name": "exchange",
      "outputs": [
        {
          "internalType": "contract Waterexchange",
          "name": "",
          "type": "address"
        }
      ],
      "stateMutability": "view",
      "type": "function",
      "constant": true
    },
    {
      "inputs": [
        {
          "internalType": "address",
          "name": "",
          "type": "address"
        },
        {
          "internalType": "uint256",
          "name": "",
          "type": "uint256"
        }
      ],
      "name": "exchangePurchasedetails",
      "outputs": [
        {
          "internalType": "uint256",
          "name": "quantity",
          "type": "uint256"
        },
        {
          "internalType": "uint256",
          "name": "_purchasenumber",
          "type": "uint256"
        },
        {
          "internalType": "uint256",
          "name": "globalno",
          "type": "uint256"
        },
        {
          "internalType": "uint256",
          "name": "tokenamount",
          "type": "uint256"
        },
        {
          "internalType": "uint256",
          "name": "time",
          "type": "uint256"
        },
        {
          "internalType": "uint256",
          "name": "watertype",
          "type": "uint256"
        },
        {
          "internalType": "bool",
          "name": "pending",
          "type": "bool"
        },
        {
          "internalType": "address",
          "name": "customeraddr",
          "type": "address"
        },
        {
          "internalType": "address",
          "name": "customer",
          "type": "address"
        },
        {
          "internalType": "string",
          "name": "location",
          "type": "string"
        },
        {
          "internalType": "enum Watersale.state",
          "name": "status",
          "type": "uint8"
        }
      ],
      "stateMutability": "view",
      "type": "function",
      "constant": true
    },
    {
      "inputs": [],
      "name": "globalpurchasenumber",
      "outputs": [
        {
          "internalType": "uint256",
          "name": "",
          "type": "uint256"
        }
      ],
      "stateMutability": "view",
      "type": "function",
      "constant": true
    },
    {
      "inputs": [
        {
          "internalType": "address",
          "name": "",
          "type": "address"
        },
        {
          "internalType": "address",
          "name": "",
          "type": "address"
        }
      ],
      "name": "pending",
      "outputs": [
        {
          "internalType": "bool",
          "name": "",
          "type": "bool"
        }
      ],
      "stateMutability": "view",
      "type": "function",
      "constant": true
    },
    {
      "inputs": [
        {
          "internalType": "address",
          "name": "",
          "type": "address"
        }
      ],
      "name": "purchaseNumber",
      "outputs": [
        {
          "internalType": "uint256",
          "name": "",
          "type": "uint256"
        }
      ],
      "stateMutability": "view",
      "type": "function",
      "constant": true
    },
    {
      "inputs": [],
      "name": "token",
      "outputs": [
        {
          "internalType": "contract OxidaneToken",
          "name": "",
          "type": "address"
        }
      ],
      "stateMutability": "view",
      "type": "function",
      "constant": true
    },
    {
      "inputs": [
        {
          "internalType": "address",
          "name": "",
          "type": "address"
        },
        {
          "internalType": "uint256",
          "name": "",
          "type": "uint256"
        }
      ],
      "name": "userglobalnoretriever",
      "outputs": [
        {
          "internalType": "uint256",
          "name": "",
          "type": "uint256"
        }
      ],
      "stateMutability": "view",
      "type": "function",
      "constant": true
    },
    {
      "inputs": [
        {
          "internalType": "address",
          "name": "",
          "type": "address"
        },
        {
          "internalType": "uint256",
          "name": "",
          "type": "uint256"
        }
      ],
      "name": "userpurchasedetails",
      "outputs": [
        {
          "internalType": "uint256",
          "name": "quantity",
          "type": "uint256"
        },
        {
          "internalType": "uint256",
          "name": "_purchasenumber",
          "type": "uint256"
        },
        {
          "internalType": "uint256",
          "name": "globalno",
          "type": "uint256"
        },
        {
          "internalType": "uint256",
          "name": "tokenamount",
          "type": "uint256"
        },
        {
          "internalType": "uint256",
          "name": "time",
          "type": "uint256"
        },
        {
          "internalType": "uint256",
          "name": "watertype",
          "type": "uint256"
        },
        {
          "internalType": "bool",
          "name": "pending",
          "type": "bool"
        },
        {
          "internalType": "address",
          "name": "customeraddr",
          "type": "address"
        },
        {
          "internalType": "address",
          "name": "customer",
          "type": "address"
        },
        {
          "internalType": "string",
          "name": "location",
          "type": "string"
        },
        {
          "internalType": "enum Watersale.state",
          "name": "status",
          "type": "uint8"
        }
      ],
      "stateMutability": "view",
      "type": "function",
      "constant": true
    },
    {
      "inputs": [
        {
          "internalType": "address",
          "name": "",
          "type": "address"
        }
      ],
      "name": "userpurchaseno",
      "outputs": [
        {
          "internalType": "uint256",
          "name": "",
          "type": "uint256"
        }
      ],
      "stateMutability": "view",
      "type": "function",
      "constant": true
    },
    {
      "inputs": [
        {
          "internalType": "uint256",
          "name": "_quantity",
          "type": "uint256"
        },
        {
          "internalType": "address",
          "name": "_localexchange",
          "type": "address"
        },
        {
          "internalType": "uint256",
          "name": "_tokenamount",
          "type": "uint256"
        },
        {
          "internalType": "string",
          "name": "_deliverylocation",
          "type": "string"
        },
        {
          "internalType": "uint256",
          "name": "_watertype",
          "type": "uint256"
        },
        {
          "internalType": "uint256",
          "name": "_customertype",
          "type": "uint256"
        },
        {
          "internalType": "uint256",
          "name": "customerno",
          "type": "uint256"
        },
        {
          "internalType": "string",
          "name": "phoneno",
          "type": "string"
        }
      ],
      "name": "waterPurchase",
      "outputs": [],
      "stateMutability": "nonpayable",
      "type": "function"
    },
    {
      "inputs": [
        {
          "internalType": "address",
          "name": "_localexchange",
          "type": "address"
        },
        {
          "internalType": "uint256",
          "name": "_purchaseNumber",
          "type": "uint256"
        }
      ],
      "name": "getExchangepurchaseDetails",
      "outputs": [
        {
          "internalType": "enum Watersale.state",
          "name": "status",
          "type": "uint8"
        },
        {
          "internalType": "address",
          "name": "customerAddress",
          "type": "address"
        },
        {
          "internalType": "uint256",
          "name": "purchasenumber",
          "type": "uint256"
        }
      ],
      "stateMutability": "view",
      "type": "function",
      "constant": true
    },
    {
      "inputs": [
        {
          "internalType": "address",
          "name": "_user",
          "type": "address"
        },
        {
          "internalType": "uint256",
          "name": "_globalpurchasenumber",
          "type": "uint256"
        }
      ],
      "name": "getUserpurchaseStatus",
      "outputs": [
        {
          "internalType": "enum Watersale.state",
          "name": "status",
          "type": "uint8"
        }
      ],
      "stateMutability": "view",
      "type": "function",
      "constant": true
    },
    {
      "inputs": [
        {
          "internalType": "uint256",
          "name": "_purchasenumber",
          "type": "uint256"
        },
        {
          "internalType": "uint256",
          "name": "_timestamp",
          "type": "uint256"
        }
      ],
      "name": "triggerDelivery",
      "outputs": [],
      "stateMutability": "nonpayable",
      "type": "function"
    },
    {
      "inputs": [
        {
          "internalType": "uint256",
          "name": "_globalpurchaseno",
          "type": "uint256"
        },
        {
          "internalType": "address",
          "name": "_localExchange",
          "type": "address"
        },
        {
          "internalType": "uint256",
          "name": "customerno",
          "type": "uint256"
        }
      ],
      "name": "Confirmation",
      "outputs": [],
      "stateMutability": "nonpayable",
      "type": "function"
    },
    {
      "inputs": [
        {
          "internalType": "uint256",
          "name": "_globalpurchaseno",
          "type": "uint256"
        },
        {
          "internalType": "address",
          "name": "_exchangeaddr",
          "type": "address"
        }
      ],
      "name": "rejectdelivery",
      "outputs": [],
      "stateMutability": "nonpayable",
      "type": "function"
    },
    {
      "inputs": [
        {
          "internalType": "address",
          "name": "_exchangeaddr",
          "type": "address"
        }
      ],
      "name": "getstatus",
      "outputs": [
        {
          "internalType": "bool",
          "name": "status",
          "type": "bool"
        }
      ],
      "stateMutability": "view",
      "type": "function",
      "constant": true
    }
  ],
  "bytecode": "0x608060405234801561001057600080fd5b50604051612e93380380612e938339818101604052604081101561003357600080fd5b810190808051906020019092919080519060200190929190505050816000806101000a81548173ffffffffffffffffffffffffffffffffffffffff021916908373ffffffffffffffffffffffffffffffffffffffff16021790555080600160006101000a81548173ffffffffffffffffffffffffffffffffffffffff021916908373ffffffffffffffffffffffffffffffffffffffff1602179055505050612db3806100e06000396000f3fe608060405234801561001057600080fd5b506004361061010b5760003560e01c8063a014e56d116100a2578063e614d3e311610071578063e614d3e3146107dc578063e9b71e3f1461083e578063f7b9fd5314610876578063faef9a54146108ce578063fc0c546a14610a455761010b565b8063a014e56d146106ce578063d2f7265a14610726578063d9835d5514610770578063e4e7c1e91461078e5761010b565b806347d68012116100de57806347d68012146103cf578063596b2743146104795780637f938b32146104d157806391f616e6146106765761010b565b806319bc9ae8146101105780631cd4a0751461018c5780633295ec7b146101fc5780633a3d078814610373575b600080fd5b6101726004803603604081101561012657600080fd5b81019080803573ffffffffffffffffffffffffffffffffffffffff169060200190929190803573ffffffffffffffffffffffffffffffffffffffff169060200190929190505050610a8f565b604051808215151515815260200191505060405180910390f35b6101d8600480360360408110156101a257600080fd5b81019080803573ffffffffffffffffffffffffffffffffffffffff16906020019092919080359060200190929190505050610abe565b604051808260038111156101e857fe5b60ff16815260200191505060405180910390f35b6102486004803603604081101561021257600080fd5b81019080803573ffffffffffffffffffffffffffffffffffffffff16906020019092919080359060200190929190505050610b29565b604051808c81526020018b81526020018a8152602001898152602001888152602001878152602001861515151581526020018573ffffffffffffffffffffffffffffffffffffffff1673ffffffffffffffffffffffffffffffffffffffff1681526020018473ffffffffffffffffffffffffffffffffffffffff1673ffffffffffffffffffffffffffffffffffffffff168152602001806020018360038111156102ee57fe5b60ff168152602001828103825284818151815260200191508051906020019080838360005b8381101561032e578082015181840152602081019050610313565b50505050905090810190601f16801561035b5780820380516001836020036101000a031916815260200191505b509c5050505050505050505050505060405180910390f35b6103b56004803603602081101561038957600080fd5b81019080803573ffffffffffffffffffffffffffffffffffffffff169060200190929190505050610c82565b604051808215151515815260200191505060405180910390f35b61041b600480360360408110156103e557600080fd5b81019080803573ffffffffffffffffffffffffffffffffffffffff16906020019092919080359060200190929190505050610d15565b6040518084600381111561042b57fe5b60ff1681526020018373ffffffffffffffffffffffffffffffffffffffff1673ffffffffffffffffffffffffffffffffffffffff168152602001828152602001935050505060405180910390f35b6104bb6004803603602081101561048f57600080fd5b81019080803573ffffffffffffffffffffffffffffffffffffffff169060200190929190505050610e50565b6040518082815260200191505060405180910390f35b61067460048036036101008110156104e857600080fd5b8101908080359060200190929190803573ffffffffffffffffffffffffffffffffffffffff169060200190929190803590602001909291908035906020019064010000000081111561053957600080fd5b82018360208201111561054b57600080fd5b8035906020019184600183028401116401000000008311171561056d57600080fd5b91908080601f016020809104026020016040519081016040528093929190818152602001838380828437600081840152601f19601f820116905080830192505050505050509192919290803590602001909291908035906020019092919080359060200190929190803590602001906401000000008111156105ee57600080fd5b82018360208201111561060057600080fd5b8035906020019184600183028401116401000000008311171561062257600080fd5b91908080601f016020809104026020016040519081016040528093929190818152602001838380828437600081840152601f19601f820116905080830192505050505050509192919290505050610e68565b005b6106cc6004803603606081101561068c57600080fd5b8101908080359060200190929190803573ffffffffffffffffffffffffffffffffffffffff16906020019092919080359060200190929190505050611ea9565b005b610710600480360360208110156106e457600080fd5b81019080803573ffffffffffffffffffffffffffffffffffffffff169060200190929190505050612369565b6040518082815260200191505060405180910390f35b61072e612381565b604051808273ffffffffffffffffffffffffffffffffffffffff1673ffffffffffffffffffffffffffffffffffffffff16815260200191505060405180910390f35b6107786123a6565b6040518082815260200191505060405180910390f35b6107da600480360360408110156107a457600080fd5b8101908080359060200190929190803573ffffffffffffffffffffffffffffffffffffffff1690602001909291905050506123ac565b005b610828600480360360408110156107f257600080fd5b81019080803573ffffffffffffffffffffffffffffffffffffffff16906020019092919080359060200190929190505050612675565b6040518082815260200191505060405180910390f35b6108746004803603604081101561085457600080fd5b81019080803590602001909291908035906020019092919050505061269a565b005b6108b86004803603602081101561088c57600080fd5b81019080803573ffffffffffffffffffffffffffffffffffffffff169060200190929190505050612b0a565b6040518082815260200191505060405180910390f35b61091a600480360360408110156108e457600080fd5b81019080803573ffffffffffffffffffffffffffffffffffffffff16906020019092919080359060200190929190505050612b22565b604051808c81526020018b81526020018a8152602001898152602001888152602001878152602001861515151581526020018573ffffffffffffffffffffffffffffffffffffffff1673ffffffffffffffffffffffffffffffffffffffff1681526020018473ffffffffffffffffffffffffffffffffffffffff1673ffffffffffffffffffffffffffffffffffffffff168152602001806020018360038111156109c057fe5b60ff168152602001828103825284818151815260200191508051906020019080838360005b83811015610a005780820151818401526020810190506109e5565b50505050905090810190601f168015610a2d5780820380516001836020036101000a031916815260200191505b509c5050505050505050505050505060405180910390f35b610a4d612c7b565b604051808273ffffffffffffffffffffffffffffffffffffffff1673ffffffffffffffffffffffffffffffffffffffff16815260200191505060405180910390f35b60096020528160005260406000206020528060005260406000206000915091509054906101000a900460ff1681565b6000600860008473ffffffffffffffffffffffffffffffffffffffff1673ffffffffffffffffffffffffffffffffffffffff168152602001908152602001600020600083815260200190815260200160002060090160009054906101000a900460ff16905092915050565b6005602052816000526040600020602052806000526040600020600091509150508060000154908060010154908060020154908060030154908060040154908060050154908060060160009054906101000a900460ff16908060060160019054906101000a900473ffffffffffffffffffffffffffffffffffffffff16908060070160009054906101000a900473ffffffffffffffffffffffffffffffffffffffff1690806008018054600181600116156101000203166002900480601f016020809104026020016040519081016040528092919081815260200182805460018160011615610100020316600290048015610c655780601f10610c3a57610100808354040283529160200191610c65565b820191906000526020600020905b815481529060010190602001808311610c4857829003601f168201915b5050505050908060090160009054906101000a900460ff1690508b565b6000600960003373ffffffffffffffffffffffffffffffffffffffff1673ffffffffffffffffffffffffffffffffffffffff16815260200190815260200160002060008373ffffffffffffffffffffffffffffffffffffffff1673ffffffffffffffffffffffffffffffffffffffff16815260200190815260200160002060009054906101000a900460ff169050919050565b6000806000600560008673ffffffffffffffffffffffffffffffffffffffff1673ffffffffffffffffffffffffffffffffffffffff168152602001908152602001600020600085815260200190815260200160002060090160009054906101000a900460ff169250600560008673ffffffffffffffffffffffffffffffffffffffff1673ffffffffffffffffffffffffffffffffffffffff168152602001908152602001600020600085815260200190815260200160002060060160019054906101000a900473ffffffffffffffffffffffffffffffffffffffff169150600560008673ffffffffffffffffffffffffffffffffffffffff1673ffffffffffffffffffffffffffffffffffffffff16815260200190815260200160002060008581526020019081526020016000206001015490509250925092565b60046020528060005260406000206000915090505481565b610e70612ca1565b600085141561124a576000841415610e92576005816000018181525050610e9e565b600a8160000181815250505b8060000151891115610efb576040517f08c379a0000000000000000000000000000000000000000000000000000000008152600401808060200182810382526028815260200180612d566028913960400191505060405180910390fd5b4262015180600a60003373ffffffffffffffffffffffffffffffffffffffff1673ffffffffffffffffffffffffffffffffffffffff16815260200190815260200160002060008081526020019081526020016000205401111561102957806000015189600b60003373ffffffffffffffffffffffffffffffffffffffff1673ffffffffffffffffffffffffffffffffffffffff168152602001908152602001600020600080815260200190815260200160002054011115611024576040517f08c379a000000000000000000000000000000000000000000000000000000000815260040180806020018281038252600e8152602001807f6578636565646564206c696d697400000000000000000000000000000000000081525060200191505060405180910390fd5b6110d6565b6000600a60003373ffffffffffffffffffffffffffffffffffffffff1673ffffffffffffffffffffffffffffffffffffffff1681526020019081526020016000206000808152602001908152602001600020819055506000600b60003373ffffffffffffffffffffffffffffffffffffffff1673ffffffffffffffffffffffffffffffffffffffff1681526020019081526020016000206000808152602001908152602001600020819055505b6000809054906101000a900473ffffffffffffffffffffffffffffffffffffffff1673ffffffffffffffffffffffffffffffffffffffff16633a9f52d68a8a6040518363ffffffff1660e01b8152600401808381526020018273ffffffffffffffffffffffffffffffffffffffff1673ffffffffffffffffffffffffffffffffffffffff16815260200192505050600060405180830381600087803b15801561117e57600080fd5b505af1158015611192573d6000803e3d6000fd5b5050505042600a60003373ffffffffffffffffffffffffffffffffffffffff1673ffffffffffffffffffffffffffffffffffffffff16815260200190815260200160002060008081526020019081526020016000208190555088600b60003373ffffffffffffffffffffffffffffffffffffffff1673ffffffffffffffffffffffffffffffffffffffff1681526020019081526020016000206000808152602001908152602001600020600082825401925050819055505b600185141561162857600084141561126c57600a816000018181525050611278565b601e8160000181815250505b80600001518911156112d5576040517f08c379a0000000000000000000000000000000000000000000000000000000008152600401808060200182810382526028815260200180612d566028913960400191505060405180910390fd5b4262015180600a60003373ffffffffffffffffffffffffffffffffffffffff1673ffffffffffffffffffffffffffffffffffffffff1681526020019081526020016000206000600181526020019081526020016000205401111561140557806000015189600b60003373ffffffffffffffffffffffffffffffffffffffff1673ffffffffffffffffffffffffffffffffffffffff16815260200190815260200160002060006001815260200190815260200160002054011115611400576040517f08c379a000000000000000000000000000000000000000000000000000000000815260040180806020018281038252600e8152602001807f6578636565646564206c696d697400000000000000000000000000000000000081525060200191505060405180910390fd5b6114b2565b6000600a60003373ffffffffffffffffffffffffffffffffffffffff1673ffffffffffffffffffffffffffffffffffffffff1681526020019081526020016000206000808152602001908152602001600020819055506000600b60003373ffffffffffffffffffffffffffffffffffffffff1673ffffffffffffffffffffffffffffffffffffffff1681526020019081526020016000206000808152602001908152602001600020819055505b6000809054906101000a900473ffffffffffffffffffffffffffffffffffffffff1673ffffffffffffffffffffffffffffffffffffffff1663ea65d08e8a8a6040518363ffffffff1660e01b8152600401808381526020018273ffffffffffffffffffffffffffffffffffffffff1673ffffffffffffffffffffffffffffffffffffffff16815260200192505050600060405180830381600087803b15801561155a57600080fd5b505af115801561156e573d6000803e3d6000fd5b5050505042600a60003373ffffffffffffffffffffffffffffffffffffffff1673ffffffffffffffffffffffffffffffffffffffff1681526020019081526020016000206000600181526020019081526020016000208190555088600b60003373ffffffffffffffffffffffffffffffffffffffff1673ffffffffffffffffffffffffffffffffffffffff168152602001908152602001600020600060018152602001908152602001600020600082825401925050819055505b6001600360008a73ffffffffffffffffffffffffffffffffffffffff1673ffffffffffffffffffffffffffffffffffffffff168152602001908152602001600020600082825401925050819055506002600081548092919060010191905055506001600660003373ffffffffffffffffffffffffffffffffffffffff1673ffffffffffffffffffffffffffffffffffffffff16815260200190815260200160002060008282540192505081905550600254600760003373ffffffffffffffffffffffffffffffffffffffff1673ffffffffffffffffffffffffffffffffffffffff1681526020019081526020016000206000600660003373ffffffffffffffffffffffffffffffffffffffff1673ffffffffffffffffffffffffffffffffffffffff168152602001908152602001600020548152602001908152602001600020819055506000600860003373ffffffffffffffffffffffffffffffffffffffff1673ffffffffffffffffffffffffffffffffffffffff1681526020019081526020016000206000600254815260200190815260200160002060090160006101000a81548160ff021916908360038111156117de57fe5b0217905550600360008973ffffffffffffffffffffffffffffffffffffffff1673ffffffffffffffffffffffffffffffffffffffff16815260200190815260200160002054600860003373ffffffffffffffffffffffffffffffffffffffff1673ffffffffffffffffffffffffffffffffffffffff168152602001908152602001600020600060025481526020019081526020016000206001018190555086600860003373ffffffffffffffffffffffffffffffffffffffff1673ffffffffffffffffffffffffffffffffffffffff168152602001908152602001600020600060025481526020019081526020016000206003018190555084600860003373ffffffffffffffffffffffffffffffffffffffff1673ffffffffffffffffffffffffffffffffffffffff168152602001908152602001600020600060025481526020019081526020016000206005018190555088600860003373ffffffffffffffffffffffffffffffffffffffff1673ffffffffffffffffffffffffffffffffffffffff16815260200190815260200160002060006002548152602001908152602001600020600001819055506000600560008a73ffffffffffffffffffffffffffffffffffffffff1673ffffffffffffffffffffffffffffffffffffffff1681526020019081526020016000206000600360008c73ffffffffffffffffffffffffffffffffffffffff1673ffffffffffffffffffffffffffffffffffffffff16815260200190815260200160002054815260200190815260200160002060090160006101000a81548160ff02191690836003811115611a3957fe5b021790555033600560008a73ffffffffffffffffffffffffffffffffffffffff1673ffffffffffffffffffffffffffffffffffffffff1681526020019081526020016000206000600360008c73ffffffffffffffffffffffffffffffffffffffff1673ffffffffffffffffffffffffffffffffffffffff16815260200190815260200160002054815260200190815260200160002060060160016101000a81548173ffffffffffffffffffffffffffffffffffffffff021916908373ffffffffffffffffffffffffffffffffffffffff160217905550600360008973ffffffffffffffffffffffffffffffffffffffff1673ffffffffffffffffffffffffffffffffffffffff16815260200190815260200160002054600560008a73ffffffffffffffffffffffffffffffffffffffff1673ffffffffffffffffffffffffffffffffffffffff1681526020019081526020016000206000600360008c73ffffffffffffffffffffffffffffffffffffffff1673ffffffffffffffffffffffffffffffffffffffff16815260200190815260200160002054815260200190815260200160002060010181905550600254600560008a73ffffffffffffffffffffffffffffffffffffffff1673ffffffffffffffffffffffffffffffffffffffff1681526020019081526020016000206000600360008c73ffffffffffffffffffffffffffffffffffffffff1673ffffffffffffffffffffffffffffffffffffffff168152602001908152602001600020548152602001908152602001600020600201819055506001600960003373ffffffffffffffffffffffffffffffffffffffff1673ffffffffffffffffffffffffffffffffffffffff16815260200190815260200160002060008a73ffffffffffffffffffffffffffffffffffffffff1673ffffffffffffffffffffffffffffffffffffffff16815260200190815260200160002060006101000a81548160ff021916908315150217905550600254600360008a73ffffffffffffffffffffffffffffffffffffffff1673ffffffffffffffffffffffffffffffffffffffff168152602001908152602001600020548973ffffffffffffffffffffffffffffffffffffffff167f8b9f66670d39e7f748ccee1ef6d71b3b0327d8cc163631b6e5d9657414b2b0788c428b8d8a8d8b604051808881526020018781526020018060200186815260200185815260200184815260200180602001838103835288818151815260200191508051906020019080838360005b83811015611df7578082015181840152602081019050611ddc565b50505050905090810190601f168015611e245780820380516001836020036101000a031916815260200191505b50838103825284818151815260200191508051906020019080838360005b83811015611e5d578082015181840152602081019050611e42565b50505050905090810190601f168015611e8a5780820380516001836020036101000a031916815260200191505b50995050505050505050505060405180910390a4505050505050505050565b611eb1612ca1565b600860003373ffffffffffffffffffffffffffffffffffffffff1673ffffffffffffffffffffffffffffffffffffffff1681526020019081526020016000206000858152602001908152602001600020600101548160200181815250506002600560008573ffffffffffffffffffffffffffffffffffffffff1673ffffffffffffffffffffffffffffffffffffffff16815260200190815260200160002060008360200151815260200190815260200160002060090160006101000a81548160ff02191690836003811115611f8257fe5b0217905550600160009054906101000a900473ffffffffffffffffffffffffffffffffffffffff1673ffffffffffffffffffffffffffffffffffffffff166323b872dd3385600860003373ffffffffffffffffffffffffffffffffffffffff1673ffffffffffffffffffffffffffffffffffffffff1681526020019081526020016000206000898152602001908152602001600020600301546040518463ffffffff1660e01b8152600401808473ffffffffffffffffffffffffffffffffffffffff1673ffffffffffffffffffffffffffffffffffffffff1681526020018373ffffffffffffffffffffffffffffffffffffffff1673ffffffffffffffffffffffffffffffffffffffff1681526020018281526020019350505050602060405180830381600087803b1580156120b757600080fd5b505af11580156120cb573d6000803e3d6000fd5b505050506040513d60208110156120e157600080fd5b8101908080519060200190929190505050506000600860003373ffffffffffffffffffffffffffffffffffffffff1673ffffffffffffffffffffffffffffffffffffffff1681526020019081526020016000206000868152602001908152602001600020600301819055506002600860003373ffffffffffffffffffffffffffffffffffffffff1673ffffffffffffffffffffffffffffffffffffffff168152602001908152602001600020600086815260200190815260200160002060090160006101000a81548160ff021916908360038111156121bc57fe5b02179055506000600960003373ffffffffffffffffffffffffffffffffffffffff1673ffffffffffffffffffffffffffffffffffffffff16815260200190815260200160002060008573ffffffffffffffffffffffffffffffffffffffff1673ffffffffffffffffffffffffffffffffffffffff16815260200190815260200160002060006101000a81548160ff021916908315150217905550838373ffffffffffffffffffffffffffffffffffffffff167f2baba6afc5638dc3936cc88782cb0094ac96dd9cdb7e7942301b37a890cb1b464285600860003373ffffffffffffffffffffffffffffffffffffffff1673ffffffffffffffffffffffffffffffffffffffff16815260200190815260200160002060008a815260200190815260200160002060050154600860003373ffffffffffffffffffffffffffffffffffffffff1673ffffffffffffffffffffffffffffffffffffffff16815260200190815260200160002060008b8152602001908152602001600020600001546040518085815260200184815260200183815260200182815260200194505050505060405180910390a350505050565b60036020528060005260406000206000915090505481565b6000809054906101000a900473ffffffffffffffffffffffffffffffffffffffff1681565b60025481565b6123b4612ca1565b600860003373ffffffffffffffffffffffffffffffffffffffff1673ffffffffffffffffffffffffffffffffffffffff1681526020019081526020016000206000848152602001908152602001600020600101548160200181815250506003600560008473ffffffffffffffffffffffffffffffffffffffff1673ffffffffffffffffffffffffffffffffffffffff16815260200190815260200160002060008360200151815260200190815260200160002060090160006101000a81548160ff0219169083600381111561248557fe5b02179055506000600860003373ffffffffffffffffffffffffffffffffffffffff1673ffffffffffffffffffffffffffffffffffffffff1681526020019081526020016000206000858152602001908152602001600020600301819055506003600860003373ffffffffffffffffffffffffffffffffffffffff1673ffffffffffffffffffffffffffffffffffffffff168152602001908152602001600020600085815260200190815260200160002060090160006101000a81548160ff0219169083600381111561255357fe5b02179055506000600960003373ffffffffffffffffffffffffffffffffffffffff1673ffffffffffffffffffffffffffffffffffffffff16815260200190815260200160002060008473ffffffffffffffffffffffffffffffffffffffff1673ffffffffffffffffffffffffffffffffffffffff16815260200190815260200160002060006101000a81548160ff021916908315150217905550828273ffffffffffffffffffffffffffffffffffffffff167f0a813dd2c4164476ba0248e0b971ba067b59b0203aa523d01ecb29d1fe0fcd874233604051808381526020018273ffffffffffffffffffffffffffffffffffffffff1673ffffffffffffffffffffffffffffffffffffffff1681526020019250505060405180910390a3505050565b6007602052816000526040600020602052806000526040600020600091509150505481565b6001600460003373ffffffffffffffffffffffffffffffffffffffff1673ffffffffffffffffffffffffffffffffffffffff16815260200190815260200160002054018214612734576040517f08c379a0000000000000000000000000000000000000000000000000000000008152600401808060200182810382526021815260200180612d356021913960400191505060405180910390fd5b6001600560003373ffffffffffffffffffffffffffffffffffffffff1673ffffffffffffffffffffffffffffffffffffffff168152602001908152602001600020600084815260200190815260200160002060090160006101000a81548160ff021916908360038111156127a457fe5b02179055506001600460003373ffffffffffffffffffffffffffffffffffffffff1673ffffffffffffffffffffffffffffffffffffffff168152602001908152602001600020600082825401925050819055506127ff612ca1565b600560003373ffffffffffffffffffffffffffffffffffffffff1673ffffffffffffffffffffffffffffffffffffffff168152602001908152602001600020600084815260200190815260200160002060060160019054906101000a900473ffffffffffffffffffffffffffffffffffffffff1681610100019073ffffffffffffffffffffffffffffffffffffffff16908173ffffffffffffffffffffffffffffffffffffffff1681525050600560003373ffffffffffffffffffffffffffffffffffffffff1673ffffffffffffffffffffffffffffffffffffffff16815260200190815260200160002060008481526020019081526020016000206002015481604001818152505060016008600083610100015173ffffffffffffffffffffffffffffffffffffffff1673ffffffffffffffffffffffffffffffffffffffff16815260200190815260200160002060008360400151815260200190815260200160002060090160006101000a81548160ff0219169083600381111561298157fe5b021790555080604001513373ffffffffffffffffffffffffffffffffffffffff167f3c456bc325ae388990a7b3a020d47c36cbe0226e307feb5d1028e7bfcee06710846008600086610100015173ffffffffffffffffffffffffffffffffffffffff1673ffffffffffffffffffffffffffffffffffffffff168152602001908152602001600020600086604001518152602001908152602001600020600301546008600087610100015173ffffffffffffffffffffffffffffffffffffffff1673ffffffffffffffffffffffffffffffffffffffff168152602001908152602001600020600087604001518152602001908152602001600020600501546008600088610100015173ffffffffffffffffffffffffffffffffffffffff1673ffffffffffffffffffffffffffffffffffffffff168152602001908152602001600020600088604001518152602001908152602001600020600001546040518085815260200184815260200183815260200182815260200194505050505060405180910390a3505050565b60066020528060005260406000206000915090505481565b6008602052816000526040600020602052806000526040600020600091509150508060000154908060010154908060020154908060030154908060040154908060050154908060060160009054906101000a900460ff16908060060160019054906101000a900473ffffffffffffffffffffffffffffffffffffffff16908060070160009054906101000a900473ffffffffffffffffffffffffffffffffffffffff1690806008018054600181600116156101000203166002900480601f016020809104026020016040519081016040528092919081815260200182805460018160011615610100020316600290048015612c5e5780601f10612c3357610100808354040283529160200191612c5e565b820191906000526020600020905b815481529060010190602001808311612c4157829003601f168201915b5050505050908060090160009054906101000a900460ff1690508b565b600160009054906101000a900473ffffffffffffffffffffffffffffffffffffffff1681565b604051806101600160405280600081526020016000815260200160008152602001600081526020016000815260200160008152602001600015158152602001600073ffffffffffffffffffffffffffffffffffffffff168152602001600073ffffffffffffffffffffffffffffffffffffffff1681526020016060815260200160006003811115612d2e57fe5b8152509056fe4e6f7420466f6c6c6f77696e672046697273742d496e2046697273742d4f757420596f7520617265206e6f7420616c6c6f77656420746f206275792074686973207175616e74697479a2646970667358221220ea961794ae35fb3080d33391e2382a5852a5f385b7482baee97e0ade27d2a6a064736f6c63430006010033",
  "source": "//SPDX-License-Identifier: MIT\npragma solidity^0.6.0;\nimport \"./Waterexchange.sol\";\nimport \"./OxidaneToken.sol\";\ncontract Watersale \n{\n  \n  //For Instance Of Waterexchange Contract\n  Waterexchange public exchange;\n  \n  //For Token Contract Instance\n  OxidaneToken public token;\n\n  //Global Unique Number for Each Water Purchase\n  uint public globalpurchasenumber;\n\n  //Supply Chain State\n  enum state {Paid,Delivered,Received,Rejected}\n\n  //Unique Number for purchase in each water Exchange stored with water exchange address\n  mapping (address=>uint) public purchaseNumber;\n  \n  //Unique Number for water delivery in each water Exchange stored with water exchange address\n  mapping (address=>uint) public deliveryNumber;\n\n  struct details\n  {\n    uint  quantity;//Stores water quantity\n    uint _purchasenumber;//Stores Exchange Purchase Number\n    uint globalno;// Stores Global unique Purchase number\n    uint tokenamount;// Stores Tokenamount\n    uint time;// Stores Timestamp\n    uint watertype;//Stores Watertype\n    bool pending;//Stores Pending status\n    address customeraddr;// Stores Customer address \n    address customer;// For Temporary variable\n    string location;//Stores Location\n    state status;//Stores Purchase Status\n\n  }\n  //Stores  purchase details for water exchange with exchange address and exchange's purchasenumber\n  mapping(address=>mapping(uint =>details)) public exchangePurchasedetails;\n\n  //Stores count of total no of waterpurchases with user address\n  mapping(address=>uint) public userpurchaseno;\n\n  //Stores  user global purchasenumber with user address & user purchase no\n  mapping(address=>mapping(uint =>uint)) public userglobalnoretriever;\n\n  //Stores  purchase details for user with user address and global purchaseno\n  mapping(address=>mapping(uint =>details)) public userpurchasedetails;\n  \n  //Stores whether a pending state is present between an exchange and user \n  //which is used to prevent further purchase-only one purchase cycle is allowed at a time,\n  //purchase cycle will end only after received state or reject state\n  mapping(address=>mapping(address =>bool)) public pending;\n  \n  //stores timestamp with user address & watertype-used for daily purchase limit\n  mapping(address=>mapping(uint=>uint))timestamp;\n  \n  //stores daily balance of token with user address & watertype\n  mapping(address=>mapping(uint=>uint))wateramount;\n \n  //Event For Water Purchase\n   event WaterPurchase(address indexed exchangeaddr,uint  indexed _purchaseNumber,uint indexed globalpurchasenumber,uint _quantity,uint256 _time,string _deliverylocation,uint tokenamount,uint customerno,uint watertype,string phoneno);\n  \n  //Event For WATER Delivery From Exchange \n   event WaterDelivery(address indexed exchangeaddr ,uint indexed  globalpurchasenumber,uint256 _time,uint tokenamount,uint watertype,uint quantity);\n  \n  //Event  For  Delivery confirmation \n   event DeliveryConfirmation(address indexed exchangeaddr ,uint indexed globalpurchasenumber,uint256 _time,uint customerno,uint watertype,uint quantity);\n   \n    //Event  For  Delivery confirmation\n   event DeliveryRejection(address indexed exchangeaddr ,uint indexed globalpurchasenumber,uint256 _time,address customer);\n\n  constructor(Waterexchange _exchange,OxidaneToken _token) public\n  {\n    \n    //EXCHANGE INSTANCE\n     exchange = _exchange;\n     \n     //TOKEN INSTANCE\n     token = _token;\n  }\n   \n     //FUNCTION FOR WATER PURCHASE AFTER TOKEN TRANSFER\n  function waterPurchase(uint _quantity,address _localexchange,uint _tokenamount,string memory _deliverylocation,uint _watertype,uint _customertype,uint customerno,string memory phoneno)public \n  {\n\n       //creating a temporary instance of struct details for temporary storage variable\n        details memory tempvar;\n\n       \n    //If watertype is Drinking\n    if(_watertype==0)\n      {\n        \n          //if customer is of category individual\n          if(_customertype==0)\n        {\n          // daily drinking water buy limit is set to 5000l\n          tempvar.quantity=5;\n        }\n        //if customer is of category industry\n        else\n        {\n          // daily drinking water buy limit is set to 10,000l\n          tempvar.quantity=10;\n        }\n        \n        //checks quantity is less than or equal to dailylimit\n        require(_quantity<=tempvar.quantity,\"You are not allowed to buy this quantity\");\n        \n        //checks whether user is buying for first time in a day or not\n        if(timestamp[msg.sender][0]+24 hours>now)\n        {\n          // if it is not first time then checks the sum of todays purchase quantity & purchase quantity is less than quantitty\n          require(wateramount[msg.sender][0] +_quantity<= tempvar.quantity,\"exceeded limit\");\n        }\n        //if its for the first time in a day\n        else\n        {\n          // timestamp of previous purchase is set to zero for drinking water\n          timestamp[msg.sender][0]=0;\n          \n          //total purchase quantity of previous purchase is set to zero for drinking water\n          wateramount[msg.sender][0]=0;\n        }\n            // performing water buying\n           exchange.buyDrinkingWater(_quantity,_localexchange);\n           \n           //Timestamp is set for daily limit for drinkingwater\n            timestamp[msg.sender][0]=now;\n            \n            // quantity is set for daily limit for drinkinwater\n           wateramount[msg.sender][0]+=_quantity;\n        }\n    //If watertype is of type Non- Drinking\n    if (_watertype==1)\n      {\n     //if customer is of category individual\n          if(_customertype==0)\n        {\n          \n          // Daily non-drinking water buy limit is set to 10000l \n          tempvar.quantity = 10;\n\n        }\n        //if customer is of category industry\n        else\n        {\n          // daily non-drinking water buy limit is set to 30,000l\n          tempvar.quantity = 30;\n        }\n        \n        //checks quantity is less than or equal to dailylimit\n        require(_quantity<=tempvar.quantity,\"You are not allowed to buy this quantity\");\n\n        //checks whether user is buying for first time in a day or not\n        if(timestamp[msg.sender][1]+24 hours>now)\n        {\n           // if it is not first time then checks the sum of todays purchase quantity & purchase quantity is less than quantitty\n          require(wateramount[msg.sender][1] +_quantity<= tempvar.quantity,\"exceeded limit\");\n        }\n         //if its for the first time in a day\n        else\n        {\n          // timestamp of previous purchase is set to zero for non-drinking\n          timestamp[msg.sender][0]=0;\n         \n          //total purchase quantity of previous purchase is set to zero for non-drinking\n          wateramount[msg.sender][0]=0;\n        \n        }\n         \n         // performing water buying\n        exchange.buyNonDrinkingWater(_quantity,_localexchange);\n        \n        //Timestamp is set for daily limit\n        timestamp[msg.sender][1]=now;\n        \n        // quantity is set for daily limit\n        wateramount[msg.sender][1]+=_quantity;     \n   }     \n        \n        //purchase no of local exchange is incremented \n        purchaseNumber[_localexchange]+=1;\n        \n        //global purchase number is incremented\n        globalpurchasenumber++;\n      \n      //########## USER LEDGER UPDATION PART-START ########## \n        \n        //user purchase no is incremented\n        userpurchaseno[msg.sender]+=1;\n        \n        //stores globalpurchase number with user address & purchaseno\n        userglobalnoretriever[msg.sender][userpurchaseno[msg.sender]]=globalpurchasenumber;\n        \n        //updating user globalpurchaseno state to Paid state\n        userpurchasedetails[msg.sender][ globalpurchasenumber].status=state.Paid;\n        \n        //stores exchange purchaseno  with user address & global\n        userpurchasedetails[msg.sender][ globalpurchasenumber]._purchasenumber= purchaseNumber[_localexchange];\n        \n        //stores tokenamount for each purchase\n        userpurchasedetails[msg.sender][ globalpurchasenumber].tokenamount=_tokenamount;\n        \n        //Stores Watertype with user global number\n         userpurchasedetails[msg.sender][ globalpurchasenumber].watertype=_watertype;\n         \n        //Stores quantity with user global number\n         userpurchasedetails[msg.sender][ globalpurchasenumber].quantity=_quantity;\n         //########## USER LEDGER UPDATION PART-END ##########\n\n\n\n        //########## WATER EXCHANGE LEDGER UPDATION PART-START ##########\n        \n        //updating Water Exchange purchaseno state to Paid state\n        exchangePurchasedetails[_localexchange][purchaseNumber[_localexchange]].status=state.Paid;\n        //stores customer address with water exchange address & exchange purchase no\n        exchangePurchasedetails[_localexchange][purchaseNumber[_localexchange]].customeraddr=msg.sender;\n        // stores exchange purchase number with exchange address and exchange purchase number\n        exchangePurchasedetails[_localexchange][purchaseNumber[_localexchange]]._purchasenumber=purchaseNumber[_localexchange];\n        //stores global purchase number with exchange addres with exchange address and purchase number\n        exchangePurchasedetails[_localexchange][purchaseNumber[_localexchange]].globalno=globalpurchasenumber;\n        \n        //########## WATER EXCHANGE UPDATION PART-END ##########\n\n          //Purchase Pending state is acivated between user and exchnage\n            pending[msg.sender][_localexchange]=true;\n          //EMITTING EVENT AFTER PURCHASE\n           emit WaterPurchase(_localexchange, purchaseNumber[_localexchange],globalpurchasenumber,_quantity,now,_deliverylocation,_tokenamount,customerno,_watertype,phoneno);\n      }\n\n//Function for fetching exchange purchase details\nfunction getExchangepurchaseDetails(address _localexchange, uint _purchaseNumber) public view returns (state status,address customerAddress,uint purchasenumber)\n{\n      //returns the state of purchase number\n        status= exchangePurchasedetails[_localexchange][_purchaseNumber].status;\n        \n      //returns customer address of purchase number\n        customerAddress=exchangePurchasedetails[_localexchange][_purchaseNumber].customeraddr;\n      \n      //returns purchase number\n        purchasenumber=exchangePurchasedetails[_localexchange][_purchaseNumber]._purchasenumber;\n}\n\n//Function for fetching user purchase status\nfunction getUserpurchaseStatus (address _user,uint _globalpurchasenumber)public view  returns(state status)\n{\n          // returns the state of global purchase number\n       status = userpurchasedetails[_user][_globalpurchasenumber].status;\n       \n}\n\n// Function for Water exchange to trigger Delivery\nfunction triggerDelivery(uint _purchasenumber,uint _timestamp) public\n  {\n    //Preventing User From Triggering Asynchronous Delivery\n    require(_purchasenumber==deliveryNumber[msg.sender]+1,\"Not Following First-In First-Out \");\n      \n      //Updating the state of purchase number from Paid to Delivered in exchange details\n      exchangePurchasedetails[msg.sender][_purchasenumber].status=state.Delivered;\n      \n      //incrementing delivery number\n      deliveryNumber[msg.sender]+=1;\n      \n      //Creating temporary instance of struct detail for a temporary variable\n      details memory customer;\n      \n      //customer address of purchasenumber is fetched\n      customer.customer= exchangePurchasedetails[msg.sender][_purchasenumber].customeraddr;\n      \n      //Global purchase number of purchasenumber is fetched\n      customer.globalno=exchangePurchasedetails[msg.sender][_purchasenumber].globalno;\n      \n      //User Purchase detail state is updated from Paid to Delivered\n      userpurchasedetails[customer.customer][customer.globalno].status=state.Delivered;\n    \n    //Emits Delivery Event\n    emit WaterDelivery(msg.sender,customer.globalno,_timestamp,\n    userpurchasedetails[customer.customer][ customer.globalno].tokenamount,\n    userpurchasedetails[customer.customer][ customer.globalno].watertype,\n    userpurchasedetails[customer.customer][ customer.globalno].quantity\n    );\n}\n\n//Function for user to confirm Delivery\nfunction Confirmation(uint _globalpurchaseno,address _localExchange,uint customerno) public\n{\n    details memory tempvar;\n  \n  //Fetching and storing water-exchange purchase number in temporary variable\n   tempvar._purchasenumber=userpurchasedetails[msg.sender][_globalpurchaseno]._purchasenumber;\n  \n  //Exchange purchasenumber is set rejected\n   exchangePurchasedetails[_localExchange][tempvar._purchasenumber].status=state.Received;\n\n  //Transfer Tokens from user to exchange\n    token.transferFrom(msg.sender,_localExchange,userpurchasedetails[msg.sender][_globalpurchaseno].tokenamount);\n  \n  //tokenmaount for that purchasenumber is set to zero \n    userpurchasedetails[msg.sender][_globalpurchaseno].tokenamount = 0;\n  \n  //User purchase  detail state is updated from delivered to Received\n    userpurchasedetails[msg.sender][_globalpurchaseno].status = state.Received;\n  \n  //Pending state is upadted to false since supplychain cycle came to end\n    pending[msg.sender][_localExchange]=false;\n  \n  //Emits Delivery Event\n  emit DeliveryConfirmation(_localExchange,_globalpurchaseno,now,customerno,\n  userpurchasedetails[msg.sender][ _globalpurchaseno].watertype,\n  userpurchasedetails[msg.sender][ _globalpurchaseno].quantity\n  );\n}\n\n//Function for user to reject delivery if delayed(can be used only after three hour of delivery)\nfunction rejectdelivery(uint _globalpurchaseno,address _exchangeaddr )public\n{\n   details memory tempvar;\n  \n  //Fetching and storing water-exchange purchase number in temporary variable\n   tempvar._purchasenumber=userpurchasedetails[msg.sender][_globalpurchaseno]._purchasenumber;\n  \n  //Exchange purchasenumber is set rejected\n   exchangePurchasedetails[_exchangeaddr][tempvar._purchasenumber].status=state.Rejected;\n  \n  //tokenmaount for that purchasenumber is set to zero \n    userpurchasedetails[msg.sender][_globalpurchaseno].tokenamount = 0;\n \n //User purchase  detail state is updated from delivered to Received \n    userpurchasedetails[msg.sender][_globalpurchaseno].status = state.Rejected;\n \n //Pending state is upadted to false since supplychain cycle came to end\n    pending[msg.sender][_exchangeaddr]=false;\n\n\nemit DeliveryRejection(_exchangeaddr,_globalpurchaseno,now,msg.sender);\n\n}\n\n//Function to fetch Pending Status of an user and exchange\nfunction getstatus(address _exchangeaddr)public view returns(bool status)\n{\n  status = pending[msg.sender][_exchangeaddr];\n}\n\n\n}",
  "sourcePath": "/home/vimal/Project clone/ced-b4-g01/contracts/Watersale.sol",
  "compiler": {
    "name": "solc",
    "version": "0.6.1+commit.e6f7d5a4.Emscripten.clang"
  },
  "schemaVersion": "3.0.23",
  "updatedAt": "2020-08-08T14:19:12.611Z",
  "networkType": "ethereum",
  "devdoc": {
    "methods": {}
  },
  "userdoc": {
    "methods": {}
  }
}